{
	"compilerInput": "{\"language\":\"Solidity\",\"settings\":{\"optimizer\":{\"enabled\":true,\"runs\":200},\"outputSelection\":{\"*\":{\"\":[\"ast\"],\"*\":[\"abi\",\"metadata\",\"devdoc\",\"userdoc\",\"storageLayout\",\"evm.legacyAssembly\",\"evm.bytecode\",\"evm.deployedBytecode\",\"evm.methodIdentifiers\",\"evm.gasEstimates\",\"evm.assembly\"]}},\"remappings\":[]},\"sources\":{\"SlavaUkrain.sol\":{\"content\":\"// SPDX-License-Identifier: MIT\\npragma solidity ^0.5.8;\\n\\ncontract SlavaUkrainToken {\\n    string public name = \\\"SlavaUkrain\\\";  // Nome do Token\\n    string public symbol = \\\"SUT\\\";        // Símbolo do Token\\n    uint8 public decimals = 18;          // Decimais\\n    uint256 public totalSupply;          // Suprimento total de tokens\\n\\n    mapping(address => uint256) public balanceOf; // Mapeamento de saldos\\n    mapping(address => mapping(address => uint256)) public allowance; // Mapeamento de aprovações\\n\\n    // Eventos\\n    event Transfer(address indexed from, address indexed to, uint256 value);\\n    event Approval(address indexed owner, address indexed spender, uint256 value);\\n\\n    // Construtor do contrato\\n    constructor() public {\\n        totalSupply = 1_000_000_000 * 10 ** uint256(decimals); // 1 bilhão de tokens\\n        balanceOf[msg.sender] = totalSupply; // Envia todo o supply para o criador\\n        emit Transfer(address(0), msg.sender, totalSupply); // Emite evento de transferência\\n    }\\n\\n    // Função para transferir tokens\\n    function transfer(address recipient, uint256 amount) public returns (bool) {\\n        require(balanceOf[msg.sender] >= amount, \\\"Saldo insuficiente\\\");\\n        require(recipient != address(0), \\\"Endereço inválido\\\");\\n        balanceOf[msg.sender] -= amount;\\n        balanceOf[recipient] += amount;\\n        emit Transfer(msg.sender, recipient, amount);\\n        return true;\\n    }\\n\\n    // Função para aprovar gastos de terceiros\\n    function approve(address spender, uint256 amount) public returns (bool) {\\n        allowance[msg.sender][spender] = amount;\\n        emit Approval(msg.sender, spender, amount);\\n        return true;\\n    }\\n\\n    // Função para transferir tokens de uma conta para outra\\n    function transferFrom(address sender, address recipient, uint256 amount) public returns (bool) {\\n        require(balanceOf[sender] >= amount, \\\"Saldo insuficiente\\\");\\n        require(allowance[sender][msg.sender] >= amount, \\\"Permissão insuficiente\\\");\\n        balanceOf[sender] -= amount;\\n        balanceOf[recipient] += amount;\\n        allowance[sender][msg.sender] -= amount;\\n        emit Transfer(sender, recipient, amount);\\n        return true;\\n    }\\n\\n    // Função para \\\"queimar\\\" tokens (reduzir o suprimento total)\\n    function burn(uint256 amount) public returns (bool) {\\n        require(balanceOf[msg.sender] >= amount, \\\"Saldo insuficiente para queimar\\\");\\n        totalSupply -= amount;\\n        balanceOf[msg.sender] -= amount;\\n        emit Transfer(msg.sender, address(0), amount); // Emite evento de queima\\n        return true;\\n    }\\n\\n    // Funções de leitura (sem custos de gás)\\n    function getName() public view returns (string memory) {\\n        return name;\\n    }\\n\\n    function getSymbol() public view returns (string memory) {\\n        return symbol;\\n    }\\n\\n    function getTotalSupply() public view returns (uint256) {\\n        return totalSupply;\\n    }\\n}\\n\"}}}",
	"name": "SlavaUkrainToken",
	"bytecode": {
		"linkReferences": {},
		"object": "60c0604052600b60808190527f536c617661556b7261696e00000000000000000000000000000000000000000060a090815261003e9160009190610100565b506040805180820190915260038082527f5355540000000000000000000000000000000000000000000000000000000000602090920191825261008391600191610100565b506002805460ff1916601217905534801561009d57600080fd5b5060025460ff16600a0a633b9aca00026003819055336000818152600460209081526040808320859055805194855251929391927fddf252ad1be2c89b69c2b068fc378daa952ba7f163c4a11628f55a4df523b3ef9281900390910190a361019b565b828054600181600116156101000203166002900490600052602060002090601f016020900481019282601f1061014157805160ff191683800117855561016e565b8280016001018555821561016e579182015b8281111561016e578251825591602001919060010190610153565b5061017a92915061017e565b5090565b61019891905b8082111561017a5760008155600101610184565b90565b6108ce806101aa6000396000f3fe608060405234801561001057600080fd5b50600436106100cf5760003560e01c8063313ce5671161008c57806395d89b411161006657806395d89b4114610252578063a9059cbb1461025a578063c4e41b2214610286578063dd62ed3e1461028e576100cf565b8063313ce567146101f157806342966c681461020f57806370a082311461022c576100cf565b806306fdde03146100d4578063095ea7b314610151578063150704011461019157806317d7de7c1461019957806318160ddd146101a157806323b872dd146101bb575b600080fd5b6100dc6102bc565b6040805160208082528351818301528351919283929083019185019080838360005b838110156101165781810151838201526020016100fe565b50505050905090810190601f1680156101435780820380516001836020036101000a031916815260200191505b509250505060405180910390f35b61017d6004803603604081101561016757600080fd5b506001600160a01b03813516906020013561034a565b604080519115158252519081900360200190f35b6100dc6103b0565b6100dc610445565b6101a96104a6565b60408051918252519081900360200190f35b61017d600480360360608110156101d157600080fd5b506001600160a01b038135811691602081013590911690604001356104ac565b6101f9610619565b6040805160ff9092168252519081900360200190f35b61017d6004803603602081101561022557600080fd5b5035610622565b6101a96004803603602081101561024257600080fd5b50356001600160a01b03166106e8565b6100dc6106fa565b61017d6004803603604081101561027057600080fd5b506001600160a01b038135169060200135610754565b6101a961087f565b6101a9600480360360408110156102a457600080fd5b506001600160a01b0381358116916020013516610885565b6000805460408051602060026001851615610100026000190190941693909304601f810184900484028201840190925281815292918301828280156103425780601f1061031757610100808354040283529160200191610342565b820191906000526020600020905b81548152906001019060200180831161032557829003601f168201915b505050505081565b3360008181526005602090815260408083206001600160a01b038716808552908352818420869055815186815291519394909390927f8c5be1e5ebec7d5bd14f71427d1e84f3dd0314c0f7b2291e5b200ac8c7c3b925928290030190a350600192915050565b60018054604080516020601f6002600019610100878916150201909516949094049384018190048102820181019092528281526060939092909183018282801561043b5780601f106104105761010080835404028352916020019161043b565b820191906000526020600020905b81548152906001019060200180831161041e57829003601f168201915b5050505050905090565b60008054604080516020601f600260001961010060018816150201909516949094049384018190048102820181019092528281526060939092909183018282801561043b5780601f106104105761010080835404028352916020019161043b565b60035481565b6001600160a01b0383166000908152600460205260408120548211156105145760408051600160e51b62461bcd0281526020600482015260126024820152600160701b7153616c646f20696e737566696369656e746502604482015290519081900360640190fd5b6001600160a01b038416600090815260056020908152604080832033845290915290205482111561058f5760408051600160e51b62461bcd02815260206004820152601760248201527f5065726d697373c3a36f20696e737566696369656e7465000000000000000000604482015290519081900360640190fd5b6001600160a01b0380851660008181526004602090815260408083208054889003905593871680835284832080548801905583835260058252848320338452825291849020805487900390558351868152935191937fddf252ad1be2c89b69c2b068fc378daa952ba7f163c4a11628f55a4df523b3ef929081900390910190a35060019392505050565b60025460ff1681565b336000908152600460205260408120548211156106895760408051600160e51b62461bcd02815260206004820152601f60248201527f53616c646f20696e737566696369656e7465207061726120717565696d617200604482015290519081900360640190fd5b60038054839003905533600081815260046020908152604080832080548790039055805186815290519293927fddf252ad1be2c89b69c2b068fc378daa952ba7f163c4a11628f55a4df523b3ef929181900390910190a3506001919050565b60046020526000908152604090205481565b60018054604080516020600284861615610100026000190190941693909304601f810184900484028201840190925281815292918301828280156103425780601f1061031757610100808354040283529160200191610342565b336000908152600460205260408120548211156107b35760408051600160e51b62461bcd0281526020600482015260126024820152600160701b7153616c646f20696e737566696369656e746502604482015290519081900360640190fd5b6001600160a01b0383166108115760408051600160e51b62461bcd02815260206004820152601360248201527f456e64657265c3a76f20696e76c3a16c69646f00000000000000000000000000604482015290519081900360640190fd5b336000818152600460209081526040808320805487900390556001600160a01b03871680845292819020805487019055805186815290519293927fddf252ad1be2c89b69c2b068fc378daa952ba7f163c4a11628f55a4df523b3ef929181900390910190a350600192915050565b60035490565b60056020908152600092835260408084209091529082529020548156fea165627a7a72305820e3c94a680da89ddd80f90ca4756fc21931e70da7bc8fb3ae24f42db2aa0c9c8f0029",
		"opcodes": "PUSH1 0xC0 PUSH1 0x40 MSTORE PUSH1 0xB PUSH1 0x80 DUP2 SWAP1 MSTORE PUSH32 0x536C617661556B7261696E000000000000000000000000000000000000000000 PUSH1 0xA0 SWAP1 DUP2 MSTORE PUSH2 0x3E SWAP2 PUSH1 0x0 SWAP2 SWAP1 PUSH2 0x100 JUMP JUMPDEST POP PUSH1 0x40 DUP1 MLOAD DUP1 DUP3 ADD SWAP1 SWAP2 MSTORE PUSH1 0x3 DUP1 DUP3 MSTORE PUSH32 0x5355540000000000000000000000000000000000000000000000000000000000 PUSH1 0x20 SWAP1 SWAP3 ADD SWAP2 DUP3 MSTORE PUSH2 0x83 SWAP2 PUSH1 0x1 SWAP2 PUSH2 0x100 JUMP JUMPDEST POP PUSH1 0x2 DUP1 SLOAD PUSH1 0xFF NOT AND PUSH1 0x12 OR SWAP1 SSTORE CALLVALUE DUP1 ISZERO PUSH2 0x9D JUMPI PUSH1 0x0 DUP1 REVERT JUMPDEST POP PUSH1 0x2 SLOAD PUSH1 0xFF AND PUSH1 0xA EXP PUSH4 0x3B9ACA00 MUL PUSH1 0x3 DUP2 SWAP1 SSTORE CALLER PUSH1 0x0 DUP2 DUP2 MSTORE PUSH1 0x4 PUSH1 0x20 SWAP1 DUP2 MSTORE PUSH1 0x40 DUP1 DUP4 KECCAK256 DUP6 SWAP1 SSTORE DUP1 MLOAD SWAP5 DUP6 MSTORE MLOAD SWAP3 SWAP4 SWAP2 SWAP3 PUSH32 0xDDF252AD1BE2C89B69C2B068FC378DAA952BA7F163C4A11628F55A4DF523B3EF SWAP3 DUP2 SWAP1 SUB SWAP1 SWAP2 ADD SWAP1 LOG3 PUSH2 0x19B JUMP JUMPDEST DUP3 DUP1 SLOAD PUSH1 0x1 DUP2 PUSH1 0x1 AND ISZERO PUSH2 0x100 MUL SUB AND PUSH1 0x2 SWAP1 DIV SWAP1 PUSH1 0x0 MSTORE PUSH1 0x20 PUSH1 0x0 KECCAK256 SWAP1 PUSH1 0x1F ADD PUSH1 0x20 SWAP1 DIV DUP2 ADD SWAP3 DUP3 PUSH1 0x1F LT PUSH2 0x141 JUMPI DUP1 MLOAD PUSH1 0xFF NOT AND DUP4 DUP1 ADD OR DUP6 SSTORE PUSH2 0x16E JUMP JUMPDEST DUP3 DUP1 ADD PUSH1 0x1 ADD DUP6 SSTORE DUP3 ISZERO PUSH2 0x16E JUMPI SWAP2 DUP3 ADD JUMPDEST DUP3 DUP2 GT ISZERO PUSH2 0x16E JUMPI DUP3 MLOAD DUP3 SSTORE SWAP2 PUSH1 0x20 ADD SWAP2 SWAP1 PUSH1 0x1 ADD SWAP1 PUSH2 0x153 JUMP JUMPDEST POP PUSH2 0x17A SWAP3 SWAP2 POP PUSH2 0x17E JUMP JUMPDEST POP SWAP1 JUMP JUMPDEST PUSH2 0x198 SWAP2 SWAP1 JUMPDEST DUP1 DUP3 GT ISZERO PUSH2 0x17A JUMPI PUSH1 0x0 DUP2 SSTORE PUSH1 0x1 ADD PUSH2 0x184 JUMP JUMPDEST SWAP1 JUMP JUMPDEST PUSH2 0x8CE DUP1 PUSH2 0x1AA PUSH1 0x0 CODECOPY PUSH1 0x0 RETURN INVALID PUSH1 0x80 PUSH1 0x40 MSTORE CALLVALUE DUP1 ISZERO PUSH2 0x10 JUMPI PUSH1 0x0 DUP1 REVERT JUMPDEST POP PUSH1 0x4 CALLDATASIZE LT PUSH2 0xCF JUMPI PUSH1 0x0 CALLDATALOAD PUSH1 0xE0 SHR DUP1 PUSH4 0x313CE567 GT PUSH2 0x8C JUMPI DUP1 PUSH4 0x95D89B41 GT PUSH2 0x66 JUMPI DUP1 PUSH4 0x95D89B41 EQ PUSH2 0x252 JUMPI DUP1 PUSH4 0xA9059CBB EQ PUSH2 0x25A JUMPI DUP1 PUSH4 0xC4E41B22 EQ PUSH2 0x286 JUMPI DUP1 PUSH4 0xDD62ED3E EQ PUSH2 0x28E JUMPI PUSH2 0xCF JUMP JUMPDEST DUP1 PUSH4 0x313CE567 EQ PUSH2 0x1F1 JUMPI DUP1 PUSH4 0x42966C68 EQ PUSH2 0x20F JUMPI DUP1 PUSH4 0x70A08231 EQ PUSH2 0x22C JUMPI PUSH2 0xCF JUMP JUMPDEST DUP1 PUSH4 0x6FDDE03 EQ PUSH2 0xD4 JUMPI DUP1 PUSH4 0x95EA7B3 EQ PUSH2 0x151 JUMPI DUP1 PUSH4 0x15070401 EQ PUSH2 0x191 JUMPI DUP1 PUSH4 0x17D7DE7C EQ PUSH2 0x199 JUMPI DUP1 PUSH4 0x18160DDD EQ PUSH2 0x1A1 JUMPI DUP1 PUSH4 0x23B872DD EQ PUSH2 0x1BB JUMPI JUMPDEST PUSH1 0x0 DUP1 REVERT JUMPDEST PUSH2 0xDC PUSH2 0x2BC JUMP JUMPDEST PUSH1 0x40 DUP1 MLOAD PUSH1 0x20 DUP1 DUP3 MSTORE DUP4 MLOAD DUP2 DUP4 ADD MSTORE DUP4 MLOAD SWAP2 SWAP3 DUP4 SWAP3 SWAP1 DUP4 ADD SWAP2 DUP6 ADD SWAP1 DUP1 DUP4 DUP4 PUSH1 0x0 JUMPDEST DUP4 DUP2 LT ISZERO PUSH2 0x116 JUMPI DUP2 DUP2 ADD MLOAD DUP4 DUP3 ADD MSTORE PUSH1 0x20 ADD PUSH2 0xFE JUMP JUMPDEST POP POP POP POP SWAP1 POP SWAP1 DUP2 ADD SWAP1 PUSH1 0x1F AND DUP1 ISZERO PUSH2 0x143 JUMPI DUP1 DUP3 SUB DUP1 MLOAD PUSH1 0x1 DUP4 PUSH1 0x20 SUB PUSH2 0x100 EXP SUB NOT AND DUP2 MSTORE PUSH1 0x20 ADD SWAP2 POP JUMPDEST POP SWAP3 POP POP POP PUSH1 0x40 MLOAD DUP1 SWAP2 SUB SWAP1 RETURN JUMPDEST PUSH2 0x17D PUSH1 0x4 DUP1 CALLDATASIZE SUB PUSH1 0x40 DUP2 LT ISZERO PUSH2 0x167 JUMPI PUSH1 0x0 DUP1 REVERT JUMPDEST POP PUSH1 0x1 PUSH1 0x1 PUSH1 0xA0 SHL SUB DUP2 CALLDATALOAD AND SWAP1 PUSH1 0x20 ADD CALLDATALOAD PUSH2 0x34A JUMP JUMPDEST PUSH1 0x40 DUP1 MLOAD SWAP2 ISZERO ISZERO DUP3 MSTORE MLOAD SWAP1 DUP2 SWAP1 SUB PUSH1 0x20 ADD SWAP1 RETURN JUMPDEST PUSH2 0xDC PUSH2 0x3B0 JUMP JUMPDEST PUSH2 0xDC PUSH2 0x445 JUMP JUMPDEST PUSH2 0x1A9 PUSH2 0x4A6 JUMP JUMPDEST PUSH1 0x40 DUP1 MLOAD SWAP2 DUP3 MSTORE MLOAD SWAP1 DUP2 SWAP1 SUB PUSH1 0x20 ADD SWAP1 RETURN JUMPDEST PUSH2 0x17D PUSH1 0x4 DUP1 CALLDATASIZE SUB PUSH1 0x60 DUP2 LT ISZERO PUSH2 0x1D1 JUMPI PUSH1 0x0 DUP1 REVERT JUMPDEST POP PUSH1 0x1 PUSH1 0x1 PUSH1 0xA0 SHL SUB DUP2 CALLDATALOAD DUP2 AND SWAP2 PUSH1 0x20 DUP2 ADD CALLDATALOAD SWAP1 SWAP2 AND SWAP1 PUSH1 0x40 ADD CALLDATALOAD PUSH2 0x4AC JUMP JUMPDEST PUSH2 0x1F9 PUSH2 0x619 JUMP JUMPDEST PUSH1 0x40 DUP1 MLOAD PUSH1 0xFF SWAP1 SWAP3 AND DUP3 MSTORE MLOAD SWAP1 DUP2 SWAP1 SUB PUSH1 0x20 ADD SWAP1 RETURN JUMPDEST PUSH2 0x17D PUSH1 0x4 DUP1 CALLDATASIZE SUB PUSH1 0x20 DUP2 LT ISZERO PUSH2 0x225 JUMPI PUSH1 0x0 DUP1 REVERT JUMPDEST POP CALLDATALOAD PUSH2 0x622 JUMP JUMPDEST PUSH2 0x1A9 PUSH1 0x4 DUP1 CALLDATASIZE SUB PUSH1 0x20 DUP2 LT ISZERO PUSH2 0x242 JUMPI PUSH1 0x0 DUP1 REVERT JUMPDEST POP CALLDATALOAD PUSH1 0x1 PUSH1 0x1 PUSH1 0xA0 SHL SUB AND PUSH2 0x6E8 JUMP JUMPDEST PUSH2 0xDC PUSH2 0x6FA JUMP JUMPDEST PUSH2 0x17D PUSH1 0x4 DUP1 CALLDATASIZE SUB PUSH1 0x40 DUP2 LT ISZERO PUSH2 0x270 JUMPI PUSH1 0x0 DUP1 REVERT JUMPDEST POP PUSH1 0x1 PUSH1 0x1 PUSH1 0xA0 SHL SUB DUP2 CALLDATALOAD AND SWAP1 PUSH1 0x20 ADD CALLDATALOAD PUSH2 0x754 JUMP JUMPDEST PUSH2 0x1A9 PUSH2 0x87F JUMP JUMPDEST PUSH2 0x1A9 PUSH1 0x4 DUP1 CALLDATASIZE SUB PUSH1 0x40 DUP2 LT ISZERO PUSH2 0x2A4 JUMPI PUSH1 0x0 DUP1 REVERT JUMPDEST POP PUSH1 0x1 PUSH1 0x1 PUSH1 0xA0 SHL SUB DUP2 CALLDATALOAD DUP2 AND SWAP2 PUSH1 0x20 ADD CALLDATALOAD AND PUSH2 0x885 JUMP JUMPDEST PUSH1 0x0 DUP1 SLOAD PUSH1 0x40 DUP1 MLOAD PUSH1 0x20 PUSH1 0x2 PUSH1 0x1 DUP6 AND ISZERO PUSH2 0x100 MUL PUSH1 0x0 NOT ADD SWAP1 SWAP5 AND SWAP4 SWAP1 SWAP4 DIV PUSH1 0x1F DUP2 ADD DUP5 SWAP1 DIV DUP5 MUL DUP3 ADD DUP5 ADD SWAP1 SWAP3 MSTORE DUP2 DUP2 MSTORE SWAP3 SWAP2 DUP4 ADD DUP3 DUP3 DUP1 ISZERO PUSH2 0x342 JUMPI DUP1 PUSH1 0x1F LT PUSH2 0x317 JUMPI PUSH2 0x100 DUP1 DUP4 SLOAD DIV MUL DUP4 MSTORE SWAP2 PUSH1 0x20 ADD SWAP2 PUSH2 0x342 JUMP JUMPDEST DUP3 ADD SWAP2 SWAP1 PUSH1 0x0 MSTORE PUSH1 0x20 PUSH1 0x0 KECCAK256 SWAP1 JUMPDEST DUP2 SLOAD DUP2 MSTORE SWAP1 PUSH1 0x1 ADD SWAP1 PUSH1 0x20 ADD DUP1 DUP4 GT PUSH2 0x325 JUMPI DUP3 SWAP1 SUB PUSH1 0x1F AND DUP3 ADD SWAP2 JUMPDEST POP POP POP POP POP DUP2 JUMP JUMPDEST CALLER PUSH1 0x0 DUP2 DUP2 MSTORE PUSH1 0x5 PUSH1 0x20 SWAP1 DUP2 MSTORE PUSH1 0x40 DUP1 DUP4 KECCAK256 PUSH1 0x1 PUSH1 0x1 PUSH1 0xA0 SHL SUB DUP8 AND DUP1 DUP6 MSTORE SWAP1 DUP4 MSTORE DUP2 DUP5 KECCAK256 DUP7 SWAP1 SSTORE DUP2 MLOAD DUP7 DUP2 MSTORE SWAP2 MLOAD SWAP4 SWAP5 SWAP1 SWAP4 SWAP1 SWAP3 PUSH32 0x8C5BE1E5EBEC7D5BD14F71427D1E84F3DD0314C0F7B2291E5B200AC8C7C3B925 SWAP3 DUP3 SWAP1 SUB ADD SWAP1 LOG3 POP PUSH1 0x1 SWAP3 SWAP2 POP POP JUMP JUMPDEST PUSH1 0x1 DUP1 SLOAD PUSH1 0x40 DUP1 MLOAD PUSH1 0x20 PUSH1 0x1F PUSH1 0x2 PUSH1 0x0 NOT PUSH2 0x100 DUP8 DUP10 AND ISZERO MUL ADD SWAP1 SWAP6 AND SWAP5 SWAP1 SWAP5 DIV SWAP4 DUP5 ADD DUP2 SWAP1 DIV DUP2 MUL DUP3 ADD DUP2 ADD SWAP1 SWAP3 MSTORE DUP3 DUP2 MSTORE PUSH1 0x60 SWAP4 SWAP1 SWAP3 SWAP1 SWAP2 DUP4 ADD DUP3 DUP3 DUP1 ISZERO PUSH2 0x43B JUMPI DUP1 PUSH1 0x1F LT PUSH2 0x410 JUMPI PUSH2 0x100 DUP1 DUP4 SLOAD DIV MUL DUP4 MSTORE SWAP2 PUSH1 0x20 ADD SWAP2 PUSH2 0x43B JUMP JUMPDEST DUP3 ADD SWAP2 SWAP1 PUSH1 0x0 MSTORE PUSH1 0x20 PUSH1 0x0 KECCAK256 SWAP1 JUMPDEST DUP2 SLOAD DUP2 MSTORE SWAP1 PUSH1 0x1 ADD SWAP1 PUSH1 0x20 ADD DUP1 DUP4 GT PUSH2 0x41E JUMPI DUP3 SWAP1 SUB PUSH1 0x1F AND DUP3 ADD SWAP2 JUMPDEST POP POP POP POP POP SWAP1 POP SWAP1 JUMP JUMPDEST PUSH1 0x0 DUP1 SLOAD PUSH1 0x40 DUP1 MLOAD PUSH1 0x20 PUSH1 0x1F PUSH1 0x2 PUSH1 0x0 NOT PUSH2 0x100 PUSH1 0x1 DUP9 AND ISZERO MUL ADD SWAP1 SWAP6 AND SWAP5 SWAP1 SWAP5 DIV SWAP4 DUP5 ADD DUP2 SWAP1 DIV DUP2 MUL DUP3 ADD DUP2 ADD SWAP1 SWAP3 MSTORE DUP3 DUP2 MSTORE PUSH1 0x60 SWAP4 SWAP1 SWAP3 SWAP1 SWAP2 DUP4 ADD DUP3 DUP3 DUP1 ISZERO PUSH2 0x43B JUMPI DUP1 PUSH1 0x1F LT PUSH2 0x410 JUMPI PUSH2 0x100 DUP1 DUP4 SLOAD DIV MUL DUP4 MSTORE SWAP2 PUSH1 0x20 ADD SWAP2 PUSH2 0x43B JUMP JUMPDEST PUSH1 0x3 SLOAD DUP2 JUMP JUMPDEST PUSH1 0x1 PUSH1 0x1 PUSH1 0xA0 SHL SUB DUP4 AND PUSH1 0x0 SWAP1 DUP2 MSTORE PUSH1 0x4 PUSH1 0x20 MSTORE PUSH1 0x40 DUP2 KECCAK256 SLOAD DUP3 GT ISZERO PUSH2 0x514 JUMPI PUSH1 0x40 DUP1 MLOAD PUSH1 0x1 PUSH1 0xE5 SHL PUSH3 0x461BCD MUL DUP2 MSTORE PUSH1 0x20 PUSH1 0x4 DUP3 ADD MSTORE PUSH1 0x12 PUSH1 0x24 DUP3 ADD MSTORE PUSH1 0x1 PUSH1 0x70 SHL PUSH18 0x53616C646F20696E737566696369656E7465 MUL PUSH1 0x44 DUP3 ADD MSTORE SWAP1 MLOAD SWAP1 DUP2 SWAP1 SUB PUSH1 0x64 ADD SWAP1 REVERT JUMPDEST PUSH1 0x1 PUSH1 0x1 PUSH1 0xA0 SHL SUB DUP5 AND PUSH1 0x0 SWAP1 DUP2 MSTORE PUSH1 0x5 PUSH1 0x20 SWAP1 DUP2 MSTORE PUSH1 0x40 DUP1 DUP4 KECCAK256 CALLER DUP5 MSTORE SWAP1 SWAP2 MSTORE SWAP1 KECCAK256 SLOAD DUP3 GT ISZERO PUSH2 0x58F JUMPI PUSH1 0x40 DUP1 MLOAD PUSH1 0x1 PUSH1 0xE5 SHL PUSH3 0x461BCD MUL DUP2 MSTORE PUSH1 0x20 PUSH1 0x4 DUP3 ADD MSTORE PUSH1 0x17 PUSH1 0x24 DUP3 ADD MSTORE PUSH32 0x5065726D697373C3A36F20696E737566696369656E7465000000000000000000 PUSH1 0x44 DUP3 ADD MSTORE SWAP1 MLOAD SWAP1 DUP2 SWAP1 SUB PUSH1 0x64 ADD SWAP1 REVERT JUMPDEST PUSH1 0x1 PUSH1 0x1 PUSH1 0xA0 SHL SUB DUP1 DUP6 AND PUSH1 0x0 DUP2 DUP2 MSTORE PUSH1 0x4 PUSH1 0x20 SWAP1 DUP2 MSTORE PUSH1 0x40 DUP1 DUP4 KECCAK256 DUP1 SLOAD DUP9 SWAP1 SUB SWAP1 SSTORE SWAP4 DUP8 AND DUP1 DUP4 MSTORE DUP5 DUP4 KECCAK256 DUP1 SLOAD DUP9 ADD SWAP1 SSTORE DUP4 DUP4 MSTORE PUSH1 0x5 DUP3 MSTORE DUP5 DUP4 KECCAK256 CALLER DUP5 MSTORE DUP3 MSTORE SWAP2 DUP5 SWAP1 KECCAK256 DUP1 SLOAD DUP8 SWAP1 SUB SWAP1 SSTORE DUP4 MLOAD DUP7 DUP2 MSTORE SWAP4 MLOAD SWAP2 SWAP4 PUSH32 0xDDF252AD1BE2C89B69C2B068FC378DAA952BA7F163C4A11628F55A4DF523B3EF SWAP3 SWAP1 DUP2 SWAP1 SUB SWAP1 SWAP2 ADD SWAP1 LOG3 POP PUSH1 0x1 SWAP4 SWAP3 POP POP POP JUMP JUMPDEST PUSH1 0x2 SLOAD PUSH1 0xFF AND DUP2 JUMP JUMPDEST CALLER PUSH1 0x0 SWAP1 DUP2 MSTORE PUSH1 0x4 PUSH1 0x20 MSTORE PUSH1 0x40 DUP2 KECCAK256 SLOAD DUP3 GT ISZERO PUSH2 0x689 JUMPI PUSH1 0x40 DUP1 MLOAD PUSH1 0x1 PUSH1 0xE5 SHL PUSH3 0x461BCD MUL DUP2 MSTORE PUSH1 0x20 PUSH1 0x4 DUP3 ADD MSTORE PUSH1 0x1F PUSH1 0x24 DUP3 ADD MSTORE PUSH32 0x53616C646F20696E737566696369656E7465207061726120717565696D617200 PUSH1 0x44 DUP3 ADD MSTORE SWAP1 MLOAD SWAP1 DUP2 SWAP1 SUB PUSH1 0x64 ADD SWAP1 REVERT JUMPDEST PUSH1 0x3 DUP1 SLOAD DUP4 SWAP1 SUB SWAP1 SSTORE CALLER PUSH1 0x0 DUP2 DUP2 MSTORE PUSH1 0x4 PUSH1 0x20 SWAP1 DUP2 MSTORE PUSH1 0x40 DUP1 DUP4 KECCAK256 DUP1 SLOAD DUP8 SWAP1 SUB SWAP1 SSTORE DUP1 MLOAD DUP7 DUP2 MSTORE SWAP1 MLOAD SWAP3 SWAP4 SWAP3 PUSH32 0xDDF252AD1BE2C89B69C2B068FC378DAA952BA7F163C4A11628F55A4DF523B3EF SWAP3 SWAP2 DUP2 SWAP1 SUB SWAP1 SWAP2 ADD SWAP1 LOG3 POP PUSH1 0x1 SWAP2 SWAP1 POP JUMP JUMPDEST PUSH1 0x4 PUSH1 0x20 MSTORE PUSH1 0x0 SWAP1 DUP2 MSTORE PUSH1 0x40 SWAP1 KECCAK256 SLOAD DUP2 JUMP JUMPDEST PUSH1 0x1 DUP1 SLOAD PUSH1 0x40 DUP1 MLOAD PUSH1 0x20 PUSH1 0x2 DUP5 DUP7 AND ISZERO PUSH2 0x100 MUL PUSH1 0x0 NOT ADD SWAP1 SWAP5 AND SWAP4 SWAP1 SWAP4 DIV PUSH1 0x1F DUP2 ADD DUP5 SWAP1 DIV DUP5 MUL DUP3 ADD DUP5 ADD SWAP1 SWAP3 MSTORE DUP2 DUP2 MSTORE SWAP3 SWAP2 DUP4 ADD DUP3 DUP3 DUP1 ISZERO PUSH2 0x342 JUMPI DUP1 PUSH1 0x1F LT PUSH2 0x317 JUMPI PUSH2 0x100 DUP1 DUP4 SLOAD DIV MUL DUP4 MSTORE SWAP2 PUSH1 0x20 ADD SWAP2 PUSH2 0x342 JUMP JUMPDEST CALLER PUSH1 0x0 SWAP1 DUP2 MSTORE PUSH1 0x4 PUSH1 0x20 MSTORE PUSH1 0x40 DUP2 KECCAK256 SLOAD DUP3 GT ISZERO PUSH2 0x7B3 JUMPI PUSH1 0x40 DUP1 MLOAD PUSH1 0x1 PUSH1 0xE5 SHL PUSH3 0x461BCD MUL DUP2 MSTORE PUSH1 0x20 PUSH1 0x4 DUP3 ADD MSTORE PUSH1 0x12 PUSH1 0x24 DUP3 ADD MSTORE PUSH1 0x1 PUSH1 0x70 SHL PUSH18 0x53616C646F20696E737566696369656E7465 MUL PUSH1 0x44 DUP3 ADD MSTORE SWAP1 MLOAD SWAP1 DUP2 SWAP1 SUB PUSH1 0x64 ADD SWAP1 REVERT JUMPDEST PUSH1 0x1 PUSH1 0x1 PUSH1 0xA0 SHL SUB DUP4 AND PUSH2 0x811 JUMPI PUSH1 0x40 DUP1 MLOAD PUSH1 0x1 PUSH1 0xE5 SHL PUSH3 0x461BCD MUL DUP2 MSTORE PUSH1 0x20 PUSH1 0x4 DUP3 ADD MSTORE PUSH1 0x13 PUSH1 0x24 DUP3 ADD MSTORE PUSH32 0x456E64657265C3A76F20696E76C3A16C69646F00000000000000000000000000 PUSH1 0x44 DUP3 ADD MSTORE SWAP1 MLOAD SWAP1 DUP2 SWAP1 SUB PUSH1 0x64 ADD SWAP1 REVERT JUMPDEST CALLER PUSH1 0x0 DUP2 DUP2 MSTORE PUSH1 0x4 PUSH1 0x20 SWAP1 DUP2 MSTORE PUSH1 0x40 DUP1 DUP4 KECCAK256 DUP1 SLOAD DUP8 SWAP1 SUB SWAP1 SSTORE PUSH1 0x1 PUSH1 0x1 PUSH1 0xA0 SHL SUB DUP8 AND DUP1 DUP5 MSTORE SWAP3 DUP2 SWAP1 KECCAK256 DUP1 SLOAD DUP8 ADD SWAP1 SSTORE DUP1 MLOAD DUP7 DUP2 MSTORE SWAP1 MLOAD SWAP3 SWAP4 SWAP3 PUSH32 0xDDF252AD1BE2C89B69C2B068FC378DAA952BA7F163C4A11628F55A4DF523B3EF SWAP3 SWAP2 DUP2 SWAP1 SUB SWAP1 SWAP2 ADD SWAP1 LOG3 POP PUSH1 0x1 SWAP3 SWAP2 POP POP JUMP JUMPDEST PUSH1 0x3 SLOAD SWAP1 JUMP JUMPDEST PUSH1 0x5 PUSH1 0x20 SWAP1 DUP2 MSTORE PUSH1 0x0 SWAP3 DUP4 MSTORE PUSH1 0x40 DUP1 DUP5 KECCAK256 SWAP1 SWAP2 MSTORE SWAP1 DUP3 MSTORE SWAP1 KECCAK256 SLOAD DUP2 JUMP INVALID LOG1 PUSH6 0x627A7A723058 KECCAK256 0xe3 0xc9 0x4a PUSH9 0xDA89DDD80F90CA475 PUSH16 0xC21931E70DA7BC8FB3AE24F42DB2AA0C SWAP13 DUP16 STOP 0x29 "
	},
	"abi": [
		{
			"constant": false,
			"inputs": [
				{
					"name": "spender",
					"type": "address"
				},
				{
					"name": "amount",
					"type": "uint256"
				}
			],
			"name": "approve",
			"outputs": [
				{
					"name": "",
					"type": "bool"
				}
			],
			"payable": false,
			"stateMutability": "nonpayable",
			"type": "function"
		},
		{
			"constant": false,
			"inputs": [
				{
					"name": "amount",
					"type": "uint256"
				}
			],
			"name": "burn",
			"outputs": [
				{
					"name": "",
					"type": "bool"
				}
			],
			"payable": false,
			"stateMutability": "nonpayable",
			"type": "function"
		},
		{
			"constant": false,
			"inputs": [
				{
					"name": "recipient",
					"type": "address"
				},
				{
					"name": "amount",
					"type": "uint256"
				}
			],
			"name": "transfer",
			"outputs": [
				{
					"name": "",
					"type": "bool"
				}
			],
			"payable": false,
			"stateMutability": "nonpayable",
			"type": "function"
		},
		{
			"constant": false,
			"inputs": [
				{
					"name": "sender",
					"type": "address"
				},
				{
					"name": "recipient",
					"type": "address"
				},
				{
					"name": "amount",
					"type": "uint256"
				}
			],
			"name": "transferFrom",
			"outputs": [
				{
					"name": "",
					"type": "bool"
				}
			],
			"payable": false,
			"stateMutability": "nonpayable",
			"type": "function"
		},
		{
			"inputs": [],
			"payable": false,
			"stateMutability": "nonpayable",
			"type": "constructor"
		},
		{
			"anonymous": false,
			"inputs": [
				{
					"indexed": true,
					"name": "from",
					"type": "address"
				},
				{
					"indexed": true,
					"name": "to",
					"type": "address"
				},
				{
					"indexed": false,
					"name": "value",
					"type": "uint256"
				}
			],
			"name": "Transfer",
			"type": "event"
		},
		{
			"anonymous": false,
			"inputs": [
				{
					"indexed": true,
					"name": "owner",
					"type": "address"
				},
				{
					"indexed": true,
					"name": "spender",
					"type": "address"
				},
				{
					"indexed": false,
					"name": "value",
					"type": "uint256"
				}
			],
			"name": "Approval",
			"type": "event"
		},
		{
			"constant": true,
			"inputs": [
				{
					"name": "",
					"type": "address"
				},
				{
					"name": "",
					"type": "address"
				}
			],
			"name": "allowance",
			"outputs": [
				{
					"name": "",
					"type": "uint256"
				}
			],
			"payable": false,
			"stateMutability": "view",
			"type": "function"
		},
		{
			"constant": true,
			"inputs": [
				{
					"name": "",
					"type": "address"
				}
			],
			"name": "balanceOf",
			"outputs": [
				{
					"name": "",
					"type": "uint256"
				}
			],
			"payable": false,
			"stateMutability": "view",
			"type": "function"
		},
		{
			"constant": true,
			"inputs": [],
			"name": "decimals",
			"outputs": [
				{
					"name": "",
					"type": "uint8"
				}
			],
			"payable": false,
			"stateMutability": "view",
			"type": "function"
		},
		{
			"constant": true,
			"inputs": [],
			"name": "getName",
			"outputs": [
				{
					"name": "",
					"type": "string"
				}
			],
			"payable": false,
			"stateMutability": "view",
			"type": "function"
		},
		{
			"constant": true,
			"inputs": [],
			"name": "getSymbol",
			"outputs": [
				{
					"name": "",
					"type": "string"
				}
			],
			"payable": false,
			"stateMutability": "view",
			"type": "function"
		},
		{
			"constant": true,
			"inputs": [],
			"name": "getTotalSupply",
			"outputs": [
				{
					"name": "",
					"type": "uint256"
				}
			],
			"payable": false,
			"stateMutability": "view",
			"type": "function"
		},
		{
			"constant": true,
			"inputs": [],
			"name": "name",
			"outputs": [
				{
					"name": "",
					"type": "string"
				}
			],
			"payable": false,
			"stateMutability": "view",
			"type": "function"
		},
		{
			"constant": true,
			"inputs": [],
			"name": "symbol",
			"outputs": [
				{
					"name": "",
					"type": "string"
				}
			],
			"payable": false,
			"stateMutability": "view",
			"type": "function"
		},
		{
			"constant": true,
			"inputs": [],
			"name": "totalSupply",
			"outputs": [
				{
					"name": "",
					"type": "uint256"
				}
			],
			"payable": false,
			"stateMutability": "view",
			"type": "function"
		}
	],
	"web3Deploy": "var slavaukraintokenContract = new web3.eth.Contract([{\"constant\":true,\"inputs\":[],\"name\":\"name\",\"outputs\":[{\"name\":\"\",\"type\":\"string\"}],\"payable\":false,\"stateMutability\":\"view\",\"type\":\"function\"},{\"constant\":false,\"inputs\":[{\"name\":\"spender\",\"type\":\"address\"},{\"name\":\"amount\",\"type\":\"uint256\"}],\"name\":\"approve\",\"outputs\":[{\"name\":\"\",\"type\":\"bool\"}],\"payable\":false,\"stateMutability\":\"nonpayable\",\"type\":\"function\"},{\"constant\":true,\"inputs\":[],\"name\":\"getSymbol\",\"outputs\":[{\"name\":\"\",\"type\":\"string\"}],\"payable\":false,\"stateMutability\":\"view\",\"type\":\"function\"},{\"constant\":true,\"inputs\":[],\"name\":\"getName\",\"outputs\":[{\"name\":\"\",\"type\":\"string\"}],\"payable\":false,\"stateMutability\":\"view\",\"type\":\"function\"},{\"constant\":true,\"inputs\":[],\"name\":\"totalSupply\",\"outputs\":[{\"name\":\"\",\"type\":\"uint256\"}],\"payable\":false,\"stateMutability\":\"view\",\"type\":\"function\"},{\"constant\":false,\"inputs\":[{\"name\":\"sender\",\"type\":\"address\"},{\"name\":\"recipient\",\"type\":\"address\"},{\"name\":\"amount\",\"type\":\"uint256\"}],\"name\":\"transferFrom\",\"outputs\":[{\"name\":\"\",\"type\":\"bool\"}],\"payable\":false,\"stateMutability\":\"nonpayable\",\"type\":\"function\"},{\"constant\":true,\"inputs\":[],\"name\":\"decimals\",\"outputs\":[{\"name\":\"\",\"type\":\"uint8\"}],\"payable\":false,\"stateMutability\":\"view\",\"type\":\"function\"},{\"constant\":false,\"inputs\":[{\"name\":\"amount\",\"type\":\"uint256\"}],\"name\":\"burn\",\"outputs\":[{\"name\":\"\",\"type\":\"bool\"}],\"payable\":false,\"stateMutability\":\"nonpayable\",\"type\":\"function\"},{\"constant\":true,\"inputs\":[{\"name\":\"\",\"type\":\"address\"}],\"name\":\"balanceOf\",\"outputs\":[{\"name\":\"\",\"type\":\"uint256\"}],\"payable\":false,\"stateMutability\":\"view\",\"type\":\"function\"},{\"constant\":true,\"inputs\":[],\"name\":\"symbol\",\"outputs\":[{\"name\":\"\",\"type\":\"string\"}],\"payable\":false,\"stateMutability\":\"view\",\"type\":\"function\"},{\"constant\":false,\"inputs\":[{\"name\":\"recipient\",\"type\":\"address\"},{\"name\":\"amount\",\"type\":\"uint256\"}],\"name\":\"transfer\",\"outputs\":[{\"name\":\"\",\"type\":\"bool\"}],\"payable\":false,\"stateMutability\":\"nonpayable\",\"type\":\"function\"},{\"constant\":true,\"inputs\":[],\"name\":\"getTotalSupply\",\"outputs\":[{\"name\":\"\",\"type\":\"uint256\"}],\"payable\":false,\"stateMutability\":\"view\",\"type\":\"function\"},{\"constant\":true,\"inputs\":[{\"name\":\"\",\"type\":\"address\"},{\"name\":\"\",\"type\":\"address\"}],\"name\":\"allowance\",\"outputs\":[{\"name\":\"\",\"type\":\"uint256\"}],\"payable\":false,\"stateMutability\":\"view\",\"type\":\"function\"},{\"inputs\":[],\"payable\":false,\"stateMutability\":\"nonpayable\",\"type\":\"constructor\"},{\"anonymous\":false,\"inputs\":[{\"indexed\":true,\"name\":\"from\",\"type\":\"address\"},{\"indexed\":true,\"name\":\"to\",\"type\":\"address\"},{\"indexed\":false,\"name\":\"value\",\"type\":\"uint256\"}],\"name\":\"Transfer\",\"type\":\"event\"},{\"anonymous\":false,\"inputs\":[{\"indexed\":true,\"name\":\"owner\",\"type\":\"address\"},{\"indexed\":true,\"name\":\"spender\",\"type\":\"address\"},{\"indexed\":false,\"name\":\"value\",\"type\":\"uint256\"}],\"name\":\"Approval\",\"type\":\"event\"}]);\nvar slavaukraintoken = slavaukraintokenContract.deploy({\n     data: '0x60c0604052600b60808190527f536c617661556b7261696e00000000000000000000000000000000000000000060a090815261003e9160009190610100565b506040805180820190915260038082527f5355540000000000000000000000000000000000000000000000000000000000602090920191825261008391600191610100565b506002805460ff1916601217905534801561009d57600080fd5b5060025460ff16600a0a633b9aca00026003819055336000818152600460209081526040808320859055805194855251929391927fddf252ad1be2c89b69c2b068fc378daa952ba7f163c4a11628f55a4df523b3ef9281900390910190a361019b565b828054600181600116156101000203166002900490600052602060002090601f016020900481019282601f1061014157805160ff191683800117855561016e565b8280016001018555821561016e579182015b8281111561016e578251825591602001919060010190610153565b5061017a92915061017e565b5090565b61019891905b8082111561017a5760008155600101610184565b90565b6108ce806101aa6000396000f3fe608060405234801561001057600080fd5b50600436106100cf5760003560e01c8063313ce5671161008c57806395d89b411161006657806395d89b4114610252578063a9059cbb1461025a578063c4e41b2214610286578063dd62ed3e1461028e576100cf565b8063313ce567146101f157806342966c681461020f57806370a082311461022c576100cf565b806306fdde03146100d4578063095ea7b314610151578063150704011461019157806317d7de7c1461019957806318160ddd146101a157806323b872dd146101bb575b600080fd5b6100dc6102bc565b6040805160208082528351818301528351919283929083019185019080838360005b838110156101165781810151838201526020016100fe565b50505050905090810190601f1680156101435780820380516001836020036101000a031916815260200191505b509250505060405180910390f35b61017d6004803603604081101561016757600080fd5b506001600160a01b03813516906020013561034a565b604080519115158252519081900360200190f35b6100dc6103b0565b6100dc610445565b6101a96104a6565b60408051918252519081900360200190f35b61017d600480360360608110156101d157600080fd5b506001600160a01b038135811691602081013590911690604001356104ac565b6101f9610619565b6040805160ff9092168252519081900360200190f35b61017d6004803603602081101561022557600080fd5b5035610622565b6101a96004803603602081101561024257600080fd5b50356001600160a01b03166106e8565b6100dc6106fa565b61017d6004803603604081101561027057600080fd5b506001600160a01b038135169060200135610754565b6101a961087f565b6101a9600480360360408110156102a457600080fd5b506001600160a01b0381358116916020013516610885565b6000805460408051602060026001851615610100026000190190941693909304601f810184900484028201840190925281815292918301828280156103425780601f1061031757610100808354040283529160200191610342565b820191906000526020600020905b81548152906001019060200180831161032557829003601f168201915b505050505081565b3360008181526005602090815260408083206001600160a01b038716808552908352818420869055815186815291519394909390927f8c5be1e5ebec7d5bd14f71427d1e84f3dd0314c0f7b2291e5b200ac8c7c3b925928290030190a350600192915050565b60018054604080516020601f6002600019610100878916150201909516949094049384018190048102820181019092528281526060939092909183018282801561043b5780601f106104105761010080835404028352916020019161043b565b820191906000526020600020905b81548152906001019060200180831161041e57829003601f168201915b5050505050905090565b60008054604080516020601f600260001961010060018816150201909516949094049384018190048102820181019092528281526060939092909183018282801561043b5780601f106104105761010080835404028352916020019161043b565b60035481565b6001600160a01b0383166000908152600460205260408120548211156105145760408051600160e51b62461bcd0281526020600482015260126024820152600160701b7153616c646f20696e737566696369656e746502604482015290519081900360640190fd5b6001600160a01b038416600090815260056020908152604080832033845290915290205482111561058f5760408051600160e51b62461bcd02815260206004820152601760248201527f5065726d697373c3a36f20696e737566696369656e7465000000000000000000604482015290519081900360640190fd5b6001600160a01b0380851660008181526004602090815260408083208054889003905593871680835284832080548801905583835260058252848320338452825291849020805487900390558351868152935191937fddf252ad1be2c89b69c2b068fc378daa952ba7f163c4a11628f55a4df523b3ef929081900390910190a35060019392505050565b60025460ff1681565b336000908152600460205260408120548211156106895760408051600160e51b62461bcd02815260206004820152601f60248201527f53616c646f20696e737566696369656e7465207061726120717565696d617200604482015290519081900360640190fd5b60038054839003905533600081815260046020908152604080832080548790039055805186815290519293927fddf252ad1be2c89b69c2b068fc378daa952ba7f163c4a11628f55a4df523b3ef929181900390910190a3506001919050565b60046020526000908152604090205481565b60018054604080516020600284861615610100026000190190941693909304601f810184900484028201840190925281815292918301828280156103425780601f1061031757610100808354040283529160200191610342565b336000908152600460205260408120548211156107b35760408051600160e51b62461bcd0281526020600482015260126024820152600160701b7153616c646f20696e737566696369656e746502604482015290519081900360640190fd5b6001600160a01b0383166108115760408051600160e51b62461bcd02815260206004820152601360248201527f456e64657265c3a76f20696e76c3a16c69646f00000000000000000000000000604482015290519081900360640190fd5b336000818152600460209081526040808320805487900390556001600160a01b03871680845292819020805487019055805186815290519293927fddf252ad1be2c89b69c2b068fc378daa952ba7f163c4a11628f55a4df523b3ef929181900390910190a350600192915050565b60035490565b60056020908152600092835260408084209091529082529020548156fea165627a7a72305820e3c94a680da89ddd80f90ca4756fc21931e70da7bc8fb3ae24f42db2aa0c9c8f0029', \n     arguments: [\n     ]\n}).send({\n     from: web3.eth.accounts[0], \n     gas: '4700000'\n   }, function (e, contract){\n    console.log(e, contract);\n    if (typeof contract.address !== 'undefined') {\n         console.log('Contract mined! address: ' + contract.address + ' transactionHash: ' + contract.transactionHash);\n    }\n })",
	"metadataHash": "e3c94a680da89ddd80f90ca4756fc21931e70da7bc8fb3ae24f42db2aa0c9c8f",
	"swarmLocation": "bzzr://e3c94a680da89ddd80f90ca4756fc21931e70da7bc8fb3ae24f42db2aa0c9c8f",
	"functionHashes": {
		"15070401": "getSymbol()",
		"dd62ed3e": "allowance(address,address)",
		"095ea7b3": "approve(address,uint256)",
		"70a08231": "balanceOf(address)",
		"42966c68": "burn(uint256)",
		"313ce567": "decimals()",
		"17d7de7c": "getName()",
		"c4e41b22": "getTotalSupply()",
		"06fdde03": "name()",
		"95d89b41": "symbol()",
		"18160ddd": "totalSupply()",
		"a9059cbb": "transfer(address,uint256)",
		"23b872dd": "transferFrom(address,address,uint256)"
	},
	"gasEstimates": {
		"Creation": {
			"codeDepositCost": "450800",
			"executionCost": "infinite",
			"totalCost": "infinite"
		},
		"External": {
			"allowance(address,address)": "705",
			"approve(address,uint256)": "22300",
			"balanceOf(address)": "591",
			"burn(uint256)": "42921",
			"decimals()": "436",
			"getName()": "infinite",
			"getSymbol()": "infinite",
			"getTotalSupply()": "464",
			"name()": "infinite",
			"symbol()": "infinite",
			"totalSupply()": "487",
			"transfer(address,uint256)": "43065",
			"transferFrom(address,address,uint256)": "63879"
		}
	},
	"devdoc": {
		"methods": {}
	},
	"userdoc": {
		"methods": {}
	},
	"Runtime Bytecode": {
		"linkReferences": {},
		"object": "608060405234801561001057600080fd5b50600436106100cf5760003560e01c8063313ce5671161008c57806395d89b411161006657806395d89b4114610252578063a9059cbb1461025a578063c4e41b2214610286578063dd62ed3e1461028e576100cf565b8063313ce567146101f157806342966c681461020f57806370a082311461022c576100cf565b806306fdde03146100d4578063095ea7b314610151578063150704011461019157806317d7de7c1461019957806318160ddd146101a157806323b872dd146101bb575b600080fd5b6100dc6102bc565b6040805160208082528351818301528351919283929083019185019080838360005b838110156101165781810151838201526020016100fe565b50505050905090810190601f1680156101435780820380516001836020036101000a031916815260200191505b509250505060405180910390f35b61017d6004803603604081101561016757600080fd5b506001600160a01b03813516906020013561034a565b604080519115158252519081900360200190f35b6100dc6103b0565b6100dc610445565b6101a96104a6565b60408051918252519081900360200190f35b61017d600480360360608110156101d157600080fd5b506001600160a01b038135811691602081013590911690604001356104ac565b6101f9610619565b6040805160ff9092168252519081900360200190f35b61017d6004803603602081101561022557600080fd5b5035610622565b6101a96004803603602081101561024257600080fd5b50356001600160a01b03166106e8565b6100dc6106fa565b61017d6004803603604081101561027057600080fd5b506001600160a01b038135169060200135610754565b6101a961087f565b6101a9600480360360408110156102a457600080fd5b506001600160a01b0381358116916020013516610885565b6000805460408051602060026001851615610100026000190190941693909304601f810184900484028201840190925281815292918301828280156103425780601f1061031757610100808354040283529160200191610342565b820191906000526020600020905b81548152906001019060200180831161032557829003601f168201915b505050505081565b3360008181526005602090815260408083206001600160a01b038716808552908352818420869055815186815291519394909390927f8c5be1e5ebec7d5bd14f71427d1e84f3dd0314c0f7b2291e5b200ac8c7c3b925928290030190a350600192915050565b60018054604080516020601f6002600019610100878916150201909516949094049384018190048102820181019092528281526060939092909183018282801561043b5780601f106104105761010080835404028352916020019161043b565b820191906000526020600020905b81548152906001019060200180831161041e57829003601f168201915b5050505050905090565b60008054604080516020601f600260001961010060018816150201909516949094049384018190048102820181019092528281526060939092909183018282801561043b5780601f106104105761010080835404028352916020019161043b565b60035481565b6001600160a01b0383166000908152600460205260408120548211156105145760408051600160e51b62461bcd0281526020600482015260126024820152600160701b7153616c646f20696e737566696369656e746502604482015290519081900360640190fd5b6001600160a01b038416600090815260056020908152604080832033845290915290205482111561058f5760408051600160e51b62461bcd02815260206004820152601760248201527f5065726d697373c3a36f20696e737566696369656e7465000000000000000000604482015290519081900360640190fd5b6001600160a01b0380851660008181526004602090815260408083208054889003905593871680835284832080548801905583835260058252848320338452825291849020805487900390558351868152935191937fddf252ad1be2c89b69c2b068fc378daa952ba7f163c4a11628f55a4df523b3ef929081900390910190a35060019392505050565b60025460ff1681565b336000908152600460205260408120548211156106895760408051600160e51b62461bcd02815260206004820152601f60248201527f53616c646f20696e737566696369656e7465207061726120717565696d617200604482015290519081900360640190fd5b60038054839003905533600081815260046020908152604080832080548790039055805186815290519293927fddf252ad1be2c89b69c2b068fc378daa952ba7f163c4a11628f55a4df523b3ef929181900390910190a3506001919050565b60046020526000908152604090205481565b60018054604080516020600284861615610100026000190190941693909304601f810184900484028201840190925281815292918301828280156103425780601f1061031757610100808354040283529160200191610342565b336000908152600460205260408120548211156107b35760408051600160e51b62461bcd0281526020600482015260126024820152600160701b7153616c646f20696e737566696369656e746502604482015290519081900360640190fd5b6001600160a01b0383166108115760408051600160e51b62461bcd02815260206004820152601360248201527f456e64657265c3a76f20696e76c3a16c69646f00000000000000000000000000604482015290519081900360640190fd5b336000818152600460209081526040808320805487900390556001600160a01b03871680845292819020805487019055805186815290519293927fddf252ad1be2c89b69c2b068fc378daa952ba7f163c4a11628f55a4df523b3ef929181900390910190a350600192915050565b60035490565b60056020908152600092835260408084209091529082529020548156fea165627a7a72305820e3c94a680da89ddd80f90ca4756fc21931e70da7bc8fb3ae24f42db2aa0c9c8f0029",
		"opcodes": "PUSH1 0x80 PUSH1 0x40 MSTORE CALLVALUE DUP1 ISZERO PUSH2 0x10 JUMPI PUSH1 0x0 DUP1 REVERT JUMPDEST POP PUSH1 0x4 CALLDATASIZE LT PUSH2 0xCF JUMPI PUSH1 0x0 CALLDATALOAD PUSH1 0xE0 SHR DUP1 PUSH4 0x313CE567 GT PUSH2 0x8C JUMPI DUP1 PUSH4 0x95D89B41 GT PUSH2 0x66 JUMPI DUP1 PUSH4 0x95D89B41 EQ PUSH2 0x252 JUMPI DUP1 PUSH4 0xA9059CBB EQ PUSH2 0x25A JUMPI DUP1 PUSH4 0xC4E41B22 EQ PUSH2 0x286 JUMPI DUP1 PUSH4 0xDD62ED3E EQ PUSH2 0x28E JUMPI PUSH2 0xCF JUMP JUMPDEST DUP1 PUSH4 0x313CE567 EQ PUSH2 0x1F1 JUMPI DUP1 PUSH4 0x42966C68 EQ PUSH2 0x20F JUMPI DUP1 PUSH4 0x70A08231 EQ PUSH2 0x22C JUMPI PUSH2 0xCF JUMP JUMPDEST DUP1 PUSH4 0x6FDDE03 EQ PUSH2 0xD4 JUMPI DUP1 PUSH4 0x95EA7B3 EQ PUSH2 0x151 JUMPI DUP1 PUSH4 0x15070401 EQ PUSH2 0x191 JUMPI DUP1 PUSH4 0x17D7DE7C EQ PUSH2 0x199 JUMPI DUP1 PUSH4 0x18160DDD EQ PUSH2 0x1A1 JUMPI DUP1 PUSH4 0x23B872DD EQ PUSH2 0x1BB JUMPI JUMPDEST PUSH1 0x0 DUP1 REVERT JUMPDEST PUSH2 0xDC PUSH2 0x2BC JUMP JUMPDEST PUSH1 0x40 DUP1 MLOAD PUSH1 0x20 DUP1 DUP3 MSTORE DUP4 MLOAD DUP2 DUP4 ADD MSTORE DUP4 MLOAD SWAP2 SWAP3 DUP4 SWAP3 SWAP1 DUP4 ADD SWAP2 DUP6 ADD SWAP1 DUP1 DUP4 DUP4 PUSH1 0x0 JUMPDEST DUP4 DUP2 LT ISZERO PUSH2 0x116 JUMPI DUP2 DUP2 ADD MLOAD DUP4 DUP3 ADD MSTORE PUSH1 0x20 ADD PUSH2 0xFE JUMP JUMPDEST POP POP POP POP SWAP1 POP SWAP1 DUP2 ADD SWAP1 PUSH1 0x1F AND DUP1 ISZERO PUSH2 0x143 JUMPI DUP1 DUP3 SUB DUP1 MLOAD PUSH1 0x1 DUP4 PUSH1 0x20 SUB PUSH2 0x100 EXP SUB NOT AND DUP2 MSTORE PUSH1 0x20 ADD SWAP2 POP JUMPDEST POP SWAP3 POP POP POP PUSH1 0x40 MLOAD DUP1 SWAP2 SUB SWAP1 RETURN JUMPDEST PUSH2 0x17D PUSH1 0x4 DUP1 CALLDATASIZE SUB PUSH1 0x40 DUP2 LT ISZERO PUSH2 0x167 JUMPI PUSH1 0x0 DUP1 REVERT JUMPDEST POP PUSH1 0x1 PUSH1 0x1 PUSH1 0xA0 SHL SUB DUP2 CALLDATALOAD AND SWAP1 PUSH1 0x20 ADD CALLDATALOAD PUSH2 0x34A JUMP JUMPDEST PUSH1 0x40 DUP1 MLOAD SWAP2 ISZERO ISZERO DUP3 MSTORE MLOAD SWAP1 DUP2 SWAP1 SUB PUSH1 0x20 ADD SWAP1 RETURN JUMPDEST PUSH2 0xDC PUSH2 0x3B0 JUMP JUMPDEST PUSH2 0xDC PUSH2 0x445 JUMP JUMPDEST PUSH2 0x1A9 PUSH2 0x4A6 JUMP JUMPDEST PUSH1 0x40 DUP1 MLOAD SWAP2 DUP3 MSTORE MLOAD SWAP1 DUP2 SWAP1 SUB PUSH1 0x20 ADD SWAP1 RETURN JUMPDEST PUSH2 0x17D PUSH1 0x4 DUP1 CALLDATASIZE SUB PUSH1 0x60 DUP2 LT ISZERO PUSH2 0x1D1 JUMPI PUSH1 0x0 DUP1 REVERT JUMPDEST POP PUSH1 0x1 PUSH1 0x1 PUSH1 0xA0 SHL SUB DUP2 CALLDATALOAD DUP2 AND SWAP2 PUSH1 0x20 DUP2 ADD CALLDATALOAD SWAP1 SWAP2 AND SWAP1 PUSH1 0x40 ADD CALLDATALOAD PUSH2 0x4AC JUMP JUMPDEST PUSH2 0x1F9 PUSH2 0x619 JUMP JUMPDEST PUSH1 0x40 DUP1 MLOAD PUSH1 0xFF SWAP1 SWAP3 AND DUP3 MSTORE MLOAD SWAP1 DUP2 SWAP1 SUB PUSH1 0x20 ADD SWAP1 RETURN JUMPDEST PUSH2 0x17D PUSH1 0x4 DUP1 CALLDATASIZE SUB PUSH1 0x20 DUP2 LT ISZERO PUSH2 0x225 JUMPI PUSH1 0x0 DUP1 REVERT JUMPDEST POP CALLDATALOAD PUSH2 0x622 JUMP JUMPDEST PUSH2 0x1A9 PUSH1 0x4 DUP1 CALLDATASIZE SUB PUSH1 0x20 DUP2 LT ISZERO PUSH2 0x242 JUMPI PUSH1 0x0 DUP1 REVERT JUMPDEST POP CALLDATALOAD PUSH1 0x1 PUSH1 0x1 PUSH1 0xA0 SHL SUB AND PUSH2 0x6E8 JUMP JUMPDEST PUSH2 0xDC PUSH2 0x6FA JUMP JUMPDEST PUSH2 0x17D PUSH1 0x4 DUP1 CALLDATASIZE SUB PUSH1 0x40 DUP2 LT ISZERO PUSH2 0x270 JUMPI PUSH1 0x0 DUP1 REVERT JUMPDEST POP PUSH1 0x1 PUSH1 0x1 PUSH1 0xA0 SHL SUB DUP2 CALLDATALOAD AND SWAP1 PUSH1 0x20 ADD CALLDATALOAD PUSH2 0x754 JUMP JUMPDEST PUSH2 0x1A9 PUSH2 0x87F JUMP JUMPDEST PUSH2 0x1A9 PUSH1 0x4 DUP1 CALLDATASIZE SUB PUSH1 0x40 DUP2 LT ISZERO PUSH2 0x2A4 JUMPI PUSH1 0x0 DUP1 REVERT JUMPDEST POP PUSH1 0x1 PUSH1 0x1 PUSH1 0xA0 SHL SUB DUP2 CALLDATALOAD DUP2 AND SWAP2 PUSH1 0x20 ADD CALLDATALOAD AND PUSH2 0x885 JUMP JUMPDEST PUSH1 0x0 DUP1 SLOAD PUSH1 0x40 DUP1 MLOAD PUSH1 0x20 PUSH1 0x2 PUSH1 0x1 DUP6 AND ISZERO PUSH2 0x100 MUL PUSH1 0x0 NOT ADD SWAP1 SWAP5 AND SWAP4 SWAP1 SWAP4 DIV PUSH1 0x1F DUP2 ADD DUP5 SWAP1 DIV DUP5 MUL DUP3 ADD DUP5 ADD SWAP1 SWAP3 MSTORE DUP2 DUP2 MSTORE SWAP3 SWAP2 DUP4 ADD DUP3 DUP3 DUP1 ISZERO PUSH2 0x342 JUMPI DUP1 PUSH1 0x1F LT PUSH2 0x317 JUMPI PUSH2 0x100 DUP1 DUP4 SLOAD DIV MUL DUP4 MSTORE SWAP2 PUSH1 0x20 ADD SWAP2 PUSH2 0x342 JUMP JUMPDEST DUP3 ADD SWAP2 SWAP1 PUSH1 0x0 MSTORE PUSH1 0x20 PUSH1 0x0 KECCAK256 SWAP1 JUMPDEST DUP2 SLOAD DUP2 MSTORE SWAP1 PUSH1 0x1 ADD SWAP1 PUSH1 0x20 ADD DUP1 DUP4 GT PUSH2 0x325 JUMPI DUP3 SWAP1 SUB PUSH1 0x1F AND DUP3 ADD SWAP2 JUMPDEST POP POP POP POP POP DUP2 JUMP JUMPDEST CALLER PUSH1 0x0 DUP2 DUP2 MSTORE PUSH1 0x5 PUSH1 0x20 SWAP1 DUP2 MSTORE PUSH1 0x40 DUP1 DUP4 KECCAK256 PUSH1 0x1 PUSH1 0x1 PUSH1 0xA0 SHL SUB DUP8 AND DUP1 DUP6 MSTORE SWAP1 DUP4 MSTORE DUP2 DUP5 KECCAK256 DUP7 SWAP1 SSTORE DUP2 MLOAD DUP7 DUP2 MSTORE SWAP2 MLOAD SWAP4 SWAP5 SWAP1 SWAP4 SWAP1 SWAP3 PUSH32 0x8C5BE1E5EBEC7D5BD14F71427D1E84F3DD0314C0F7B2291E5B200AC8C7C3B925 SWAP3 DUP3 SWAP1 SUB ADD SWAP1 LOG3 POP PUSH1 0x1 SWAP3 SWAP2 POP POP JUMP JUMPDEST PUSH1 0x1 DUP1 SLOAD PUSH1 0x40 DUP1 MLOAD PUSH1 0x20 PUSH1 0x1F PUSH1 0x2 PUSH1 0x0 NOT PUSH2 0x100 DUP8 DUP10 AND ISZERO MUL ADD SWAP1 SWAP6 AND SWAP5 SWAP1 SWAP5 DIV SWAP4 DUP5 ADD DUP2 SWAP1 DIV DUP2 MUL DUP3 ADD DUP2 ADD SWAP1 SWAP3 MSTORE DUP3 DUP2 MSTORE PUSH1 0x60 SWAP4 SWAP1 SWAP3 SWAP1 SWAP2 DUP4 ADD DUP3 DUP3 DUP1 ISZERO PUSH2 0x43B JUMPI DUP1 PUSH1 0x1F LT PUSH2 0x410 JUMPI PUSH2 0x100 DUP1 DUP4 SLOAD DIV MUL DUP4 MSTORE SWAP2 PUSH1 0x20 ADD SWAP2 PUSH2 0x43B JUMP JUMPDEST DUP3 ADD SWAP2 SWAP1 PUSH1 0x0 MSTORE PUSH1 0x20 PUSH1 0x0 KECCAK256 SWAP1 JUMPDEST DUP2 SLOAD DUP2 MSTORE SWAP1 PUSH1 0x1 ADD SWAP1 PUSH1 0x20 ADD DUP1 DUP4 GT PUSH2 0x41E JUMPI DUP3 SWAP1 SUB PUSH1 0x1F AND DUP3 ADD SWAP2 JUMPDEST POP POP POP POP POP SWAP1 POP SWAP1 JUMP JUMPDEST PUSH1 0x0 DUP1 SLOAD PUSH1 0x40 DUP1 MLOAD PUSH1 0x20 PUSH1 0x1F PUSH1 0x2 PUSH1 0x0 NOT PUSH2 0x100 PUSH1 0x1 DUP9 AND ISZERO MUL ADD SWAP1 SWAP6 AND SWAP5 SWAP1 SWAP5 DIV SWAP4 DUP5 ADD DUP2 SWAP1 DIV DUP2 MUL DUP3 ADD DUP2 ADD SWAP1 SWAP3 MSTORE DUP3 DUP2 MSTORE PUSH1 0x60 SWAP4 SWAP1 SWAP3 SWAP1 SWAP2 DUP4 ADD DUP3 DUP3 DUP1 ISZERO PUSH2 0x43B JUMPI DUP1 PUSH1 0x1F LT PUSH2 0x410 JUMPI PUSH2 0x100 DUP1 DUP4 SLOAD DIV MUL DUP4 MSTORE SWAP2 PUSH1 0x20 ADD SWAP2 PUSH2 0x43B JUMP JUMPDEST PUSH1 0x3 SLOAD DUP2 JUMP JUMPDEST PUSH1 0x1 PUSH1 0x1 PUSH1 0xA0 SHL SUB DUP4 AND PUSH1 0x0 SWAP1 DUP2 MSTORE PUSH1 0x4 PUSH1 0x20 MSTORE PUSH1 0x40 DUP2 KECCAK256 SLOAD DUP3 GT ISZERO PUSH2 0x514 JUMPI PUSH1 0x40 DUP1 MLOAD PUSH1 0x1 PUSH1 0xE5 SHL PUSH3 0x461BCD MUL DUP2 MSTORE PUSH1 0x20 PUSH1 0x4 DUP3 ADD MSTORE PUSH1 0x12 PUSH1 0x24 DUP3 ADD MSTORE PUSH1 0x1 PUSH1 0x70 SHL PUSH18 0x53616C646F20696E737566696369656E7465 MUL PUSH1 0x44 DUP3 ADD MSTORE SWAP1 MLOAD SWAP1 DUP2 SWAP1 SUB PUSH1 0x64 ADD SWAP1 REVERT JUMPDEST PUSH1 0x1 PUSH1 0x1 PUSH1 0xA0 SHL SUB DUP5 AND PUSH1 0x0 SWAP1 DUP2 MSTORE PUSH1 0x5 PUSH1 0x20 SWAP1 DUP2 MSTORE PUSH1 0x40 DUP1 DUP4 KECCAK256 CALLER DUP5 MSTORE SWAP1 SWAP2 MSTORE SWAP1 KECCAK256 SLOAD DUP3 GT ISZERO PUSH2 0x58F JUMPI PUSH1 0x40 DUP1 MLOAD PUSH1 0x1 PUSH1 0xE5 SHL PUSH3 0x461BCD MUL DUP2 MSTORE PUSH1 0x20 PUSH1 0x4 DUP3 ADD MSTORE PUSH1 0x17 PUSH1 0x24 DUP3 ADD MSTORE PUSH32 0x5065726D697373C3A36F20696E737566696369656E7465000000000000000000 PUSH1 0x44 DUP3 ADD MSTORE SWAP1 MLOAD SWAP1 DUP2 SWAP1 SUB PUSH1 0x64 ADD SWAP1 REVERT JUMPDEST PUSH1 0x1 PUSH1 0x1 PUSH1 0xA0 SHL SUB DUP1 DUP6 AND PUSH1 0x0 DUP2 DUP2 MSTORE PUSH1 0x4 PUSH1 0x20 SWAP1 DUP2 MSTORE PUSH1 0x40 DUP1 DUP4 KECCAK256 DUP1 SLOAD DUP9 SWAP1 SUB SWAP1 SSTORE SWAP4 DUP8 AND DUP1 DUP4 MSTORE DUP5 DUP4 KECCAK256 DUP1 SLOAD DUP9 ADD SWAP1 SSTORE DUP4 DUP4 MSTORE PUSH1 0x5 DUP3 MSTORE DUP5 DUP4 KECCAK256 CALLER DUP5 MSTORE DUP3 MSTORE SWAP2 DUP5 SWAP1 KECCAK256 DUP1 SLOAD DUP8 SWAP1 SUB SWAP1 SSTORE DUP4 MLOAD DUP7 DUP2 MSTORE SWAP4 MLOAD SWAP2 SWAP4 PUSH32 0xDDF252AD1BE2C89B69C2B068FC378DAA952BA7F163C4A11628F55A4DF523B3EF SWAP3 SWAP1 DUP2 SWAP1 SUB SWAP1 SWAP2 ADD SWAP1 LOG3 POP PUSH1 0x1 SWAP4 SWAP3 POP POP POP JUMP JUMPDEST PUSH1 0x2 SLOAD PUSH1 0xFF AND DUP2 JUMP JUMPDEST CALLER PUSH1 0x0 SWAP1 DUP2 MSTORE PUSH1 0x4 PUSH1 0x20 MSTORE PUSH1 0x40 DUP2 KECCAK256 SLOAD DUP3 GT ISZERO PUSH2 0x689 JUMPI PUSH1 0x40 DUP1 MLOAD PUSH1 0x1 PUSH1 0xE5 SHL PUSH3 0x461BCD MUL DUP2 MSTORE PUSH1 0x20 PUSH1 0x4 DUP3 ADD MSTORE PUSH1 0x1F PUSH1 0x24 DUP3 ADD MSTORE PUSH32 0x53616C646F20696E737566696369656E7465207061726120717565696D617200 PUSH1 0x44 DUP3 ADD MSTORE SWAP1 MLOAD SWAP1 DUP2 SWAP1 SUB PUSH1 0x64 ADD SWAP1 REVERT JUMPDEST PUSH1 0x3 DUP1 SLOAD DUP4 SWAP1 SUB SWAP1 SSTORE CALLER PUSH1 0x0 DUP2 DUP2 MSTORE PUSH1 0x4 PUSH1 0x20 SWAP1 DUP2 MSTORE PUSH1 0x40 DUP1 DUP4 KECCAK256 DUP1 SLOAD DUP8 SWAP1 SUB SWAP1 SSTORE DUP1 MLOAD DUP7 DUP2 MSTORE SWAP1 MLOAD SWAP3 SWAP4 SWAP3 PUSH32 0xDDF252AD1BE2C89B69C2B068FC378DAA952BA7F163C4A11628F55A4DF523B3EF SWAP3 SWAP2 DUP2 SWAP1 SUB SWAP1 SWAP2 ADD SWAP1 LOG3 POP PUSH1 0x1 SWAP2 SWAP1 POP JUMP JUMPDEST PUSH1 0x4 PUSH1 0x20 MSTORE PUSH1 0x0 SWAP1 DUP2 MSTORE PUSH1 0x40 SWAP1 KECCAK256 SLOAD DUP2 JUMP JUMPDEST PUSH1 0x1 DUP1 SLOAD PUSH1 0x40 DUP1 MLOAD PUSH1 0x20 PUSH1 0x2 DUP5 DUP7 AND ISZERO PUSH2 0x100 MUL PUSH1 0x0 NOT ADD SWAP1 SWAP5 AND SWAP4 SWAP1 SWAP4 DIV PUSH1 0x1F DUP2 ADD DUP5 SWAP1 DIV DUP5 MUL DUP3 ADD DUP5 ADD SWAP1 SWAP3 MSTORE DUP2 DUP2 MSTORE SWAP3 SWAP2 DUP4 ADD DUP3 DUP3 DUP1 ISZERO PUSH2 0x342 JUMPI DUP1 PUSH1 0x1F LT PUSH2 0x317 JUMPI PUSH2 0x100 DUP1 DUP4 SLOAD DIV MUL DUP4 MSTORE SWAP2 PUSH1 0x20 ADD SWAP2 PUSH2 0x342 JUMP JUMPDEST CALLER PUSH1 0x0 SWAP1 DUP2 MSTORE PUSH1 0x4 PUSH1 0x20 MSTORE PUSH1 0x40 DUP2 KECCAK256 SLOAD DUP3 GT ISZERO PUSH2 0x7B3 JUMPI PUSH1 0x40 DUP1 MLOAD PUSH1 0x1 PUSH1 0xE5 SHL PUSH3 0x461BCD MUL DUP2 MSTORE PUSH1 0x20 PUSH1 0x4 DUP3 ADD MSTORE PUSH1 0x12 PUSH1 0x24 DUP3 ADD MSTORE PUSH1 0x1 PUSH1 0x70 SHL PUSH18 0x53616C646F20696E737566696369656E7465 MUL PUSH1 0x44 DUP3 ADD MSTORE SWAP1 MLOAD SWAP1 DUP2 SWAP1 SUB PUSH1 0x64 ADD SWAP1 REVERT JUMPDEST PUSH1 0x1 PUSH1 0x1 PUSH1 0xA0 SHL SUB DUP4 AND PUSH2 0x811 JUMPI PUSH1 0x40 DUP1 MLOAD PUSH1 0x1 PUSH1 0xE5 SHL PUSH3 0x461BCD MUL DUP2 MSTORE PUSH1 0x20 PUSH1 0x4 DUP3 ADD MSTORE PUSH1 0x13 PUSH1 0x24 DUP3 ADD MSTORE PUSH32 0x456E64657265C3A76F20696E76C3A16C69646F00000000000000000000000000 PUSH1 0x44 DUP3 ADD MSTORE SWAP1 MLOAD SWAP1 DUP2 SWAP1 SUB PUSH1 0x64 ADD SWAP1 REVERT JUMPDEST CALLER PUSH1 0x0 DUP2 DUP2 MSTORE PUSH1 0x4 PUSH1 0x20 SWAP1 DUP2 MSTORE PUSH1 0x40 DUP1 DUP4 KECCAK256 DUP1 SLOAD DUP8 SWAP1 SUB SWAP1 SSTORE PUSH1 0x1 PUSH1 0x1 PUSH1 0xA0 SHL SUB DUP8 AND DUP1 DUP5 MSTORE SWAP3 DUP2 SWAP1 KECCAK256 DUP1 SLOAD DUP8 ADD SWAP1 SSTORE DUP1 MLOAD DUP7 DUP2 MSTORE SWAP1 MLOAD SWAP3 SWAP4 SWAP3 PUSH32 0xDDF252AD1BE2C89B69C2B068FC378DAA952BA7F163C4A11628F55A4DF523B3EF SWAP3 SWAP2 DUP2 SWAP1 SUB SWAP1 SWAP2 ADD SWAP1 LOG3 POP PUSH1 0x1 SWAP3 SWAP2 POP POP JUMP JUMPDEST PUSH1 0x3 SLOAD SWAP1 JUMP JUMPDEST PUSH1 0x5 PUSH1 0x20 SWAP1 DUP2 MSTORE PUSH1 0x0 SWAP3 DUP4 MSTORE PUSH1 0x40 DUP1 DUP5 KECCAK256 SWAP1 SWAP2 MSTORE SWAP1 DUP3 MSTORE SWAP1 KECCAK256 SLOAD DUP2 JUMP INVALID LOG1 PUSH6 0x627A7A723058 KECCAK256 0xe3 0xc9 0x4a PUSH9 0xDA89DDD80F90CA475 PUSH16 0xC21931E70DA7BC8FB3AE24F42DB2AA0C SWAP13 DUP16 STOP 0x29 "
	},
	"Assembly": ".code\n  PUSH C0\t\t\tstring public name = \"SlavaUkr...\n  PUSH 40\t\t\tcontract SlavaUkrainToken {\\n ...\n  MSTORE \t\t\tstring public name = \"SlavaUkr...\n  PUSH B\t\t\tstring public name = \"SlavaUkr...\n  PUSH 80\t\t\tcontract SlavaUkrainToken {\\n ...\n  DUP2 \t\t\tstring public name = \"SlavaUkr...\n  SWAP1 \t\t\tstring public name = \"SlavaUkr...\n  MSTORE \t\t\tstring public name = \"SlavaUkr...\n  PUSH 536C617661556B7261696E000000000000000000000000000000000000000000\t\t\tstring public name = \"SlavaUkr...\n  PUSH A0\t\t\tstring public name = \"SlavaUkr...\n  SWAP1 \t\t\tstring public name = \"SlavaUkr...\n  DUP2 \t\t\tstring public name = \"SlavaUkr...\n  MSTORE \t\t\tstring public name = \"SlavaUkr...\n  PUSH [tag] 1\t\t\tstring public name = \"SlavaUkr...\n  SWAP2 \t\t\tstring public name = \"SlavaUkr...\n  PUSH 0\t\t\t\n  SWAP2 \t\t\t\n  SWAP1 \t\t\tstring public name = \"SlavaUkr...\n  PUSH [tag] 2\t\t\tstring public name = \"SlavaUkr...\n  JUMP [in]\t\t\tstring public name = \"SlavaUkr...\ntag 1\t\t\tstring public name = \"SlavaUkr...\n  JUMPDEST \t\t\tstring public name = \"SlavaUkr...\n  POP \t\t\t\n  PUSH 40\t\t\tstring public symbol = \"SUT\"\n  DUP1 \t\t\tstring public symbol = \"SUT\"\n  MLOAD \t\t\tstring public symbol = \"SUT\"\n  DUP1 \t\t\tstring public symbol = \"SUT\"\n  DUP3 \t\t\tstring public symbol = \"SUT\"\n  ADD \t\t\tstring public symbol = \"SUT\"\n  SWAP1 \t\t\tstring public symbol = \"SUT\"\n  SWAP2 \t\t\tstring public symbol = \"SUT\"\n  MSTORE \t\t\tstring public symbol = \"SUT\"\n  PUSH 3\t\t\tstring public symbol = \"SUT\"\n  DUP1 \t\t\tstring public symbol = \"SUT\"\n  DUP3 \t\t\tstring public symbol = \"SUT\"\n  MSTORE \t\t\tstring public symbol = \"SUT\"\n  PUSH 5355540000000000000000000000000000000000000000000000000000000000\t\t\tstring public symbol = \"SUT\"\n  PUSH 20\t\t\tstring public symbol = \"SUT\"\n  SWAP1 \t\t\tstring public symbol = \"SUT\"\n  SWAP3 \t\t\tstring public symbol = \"SUT\"\n  ADD \t\t\tstring public symbol = \"SUT\"\n  SWAP2 \t\t\tstring public symbol = \"SUT\"\n  DUP3 \t\t\tstring public symbol = \"SUT\"\n  MSTORE \t\t\tstring public symbol = \"SUT\"\n  PUSH [tag] 3\t\t\tstring public symbol = \"SUT\"\n  SWAP2 \t\t\tstring public symbol = \"SUT\"\n  PUSH 1\t\t\tstring public symbol = \"SUT\"\n  SWAP2 \t\t\tstring public symbol = \"SUT\"\n  PUSH [tag] 2\t\t\tstring public symbol = \"SUT\"\n  JUMP [in]\t\t\tstring public symbol = \"SUT\"\ntag 3\t\t\tstring public symbol = \"SUT\"\n  JUMPDEST \t\t\tstring public symbol = \"SUT\"\n  POP \t\t\t\n  PUSH 2\t\t\tint8 public decimals = 18;\n  DUP1 \t\t\tint8 public decimals = 18;\n  SLOAD \t\t\tint8 public decimals = 18;\n  PUSH FF\t\t\t\n  NOT \t\t\t\n  AND \t\t\tint8 public decimals = 18;\n  PUSH 12\t\t\t8;\n  OR \t\t\tint8 public decimals = 18;\n  SWAP1 \t\t\tint8 public decimals = 18;\n  SSTORE \t\t\tint8 public decimals = 18;\n  CALLVALUE \t\t\tstructor() public {\\n        t...\n  DUP1 \t\t\tDX\n  ISZERO \t\t\tDX\n  PUSH [tag] 4\t\t\tDX\n  JUMPI \t\t\tDX\n  PUSH 0\t\t\tT\n  DUP1 \t\t\t \n  REVERT \t\t\ttifier: MIT\\n\ntag 4\t\t\tDX\n  JUMPDEST \t\t\tDX\n  POP \t\t\t\n  PUSH 2\t\t\timals); \n  SLOAD \t\t\timals); \n  PUSH FF\t\t\timals); \n  AND \t\t\timals); \n  PUSH A\t\t\t**\n  EXP \t\t\t** uint256(decimals); /\n  PUSH 3B9ACA00\t\t\t00_000_000 * \n  MUL \t\t\t00_000_000 * 10 ** uint256(dec...\n  PUSH 3\t\t\talSupply = \n  DUP2 \t\t\talSupply = 1_000_000_000 * 10 ...\n  SWAP1 \t\t\talSupply = 1_000_000_000 * 10 ...\n  SSTORE \t\t\talSupply = 1_000_000_000 * 10 ...\n  CALLER \t\t\tsender] = \n  PUSH 0\t\t\t\n  DUP2 \t\t\tnceOf[msg.sender] = t\n  DUP2 \t\t\tnceOf[msg.sender] = t\n  MSTORE \t\t\tnceOf[msg.sender] = t\n  PUSH 4\t\t\tnceOf[msg\n  PUSH 20\t\t\tnceOf[msg.sender] = t\n  SWAP1 \t\t\tnceOf[msg.sender] = t\n  DUP2 \t\t\tnceOf[msg.sender] = t\n  MSTORE \t\t\tnceOf[msg.sender] = t\n  PUSH 40\t\t\tnceOf[msg.sender] = t\n  DUP1 \t\t\tnceOf[msg.sender] = t\n  DUP4 \t\t\tnceOf[msg.sender] = t\n  KECCAK256 \t\t\tnceOf[msg.sender] = t\n  DUP6 \t\t\tnceOf[msg.sender] = totalSuppl...\n  SWAP1 \t\t\tnceOf[msg.sender] = totalSuppl...\n  SSTORE \t\t\tnceOf[msg.sender] = totalSuppl...\n  DUP1 \t\t\tsfer(address(0), msg.sender, t...\n  MLOAD \t\t\tsfer(address(0), msg.sender, t...\n  SWAP5 \t\t\tsfer(address(0), msg.sender, t...\n  DUP6 \t\t\tsfer(address(0), msg.sender, t...\n  MSTORE \t\t\tsfer(address(0), msg.sender, t...\n  MLOAD \t\t\tsfer(address(0), msg.sender, t...\n  SWAP3 \t\t\tsender] = \n  SWAP4 \t\t\tsender] = \n  SWAP2 \t\t\t\n  SWAP3 \t\t\t\n  PUSH DDF252AD1BE2C89B69C2B068FC378DAA952BA7F163C4A11628F55A4DF523B3EF\t\t\tsfer(address(0), msg.sender, t...\n  SWAP3 \t\t\tsfer(address(0), msg.sender, t...\n  DUP2 \t\t\tsfer(address(0), msg.sender, t...\n  SWAP1 \t\t\tsfer(address(0), msg.sender, t...\n  SUB \t\t\tsfer(address(0), msg.sender, t...\n  SWAP1 \t\t\tsfer(address(0), msg.sender, t...\n  SWAP2 \t\t\tsfer(address(0), msg.sender, t...\n  ADD \t\t\tsfer(address(0), msg.sender, t...\n  SWAP1 \t\t\tsfer(address(0), msg.sender, t...\n  LOG3 \t\t\tsfer(address(0), msg.sender, t...\n  PUSH [tag] 7\t\t\tcontract SlavaUkrainToken {\\n ...\n  JUMP \t\t\tcontract SlavaUkrainToken {\\n ...\ntag 2\t\t\tcontract SlavaUkrainToken {\\n ...\n  JUMPDEST \t\t\tcontract SlavaUkrainToken {\\n ...\n  DUP3 \t\t\tcontract SlavaUkrainToken {\\n ...\n  DUP1 \t\t\tcontract SlavaUkrainToken {\\n ...\n  SLOAD \t\t\tcontract SlavaUkrainToken {\\n ...\n  PUSH 1\t\t\tcontract SlavaUkrainToken {\\n ...\n  DUP2 \t\t\tcontract SlavaUkrainToken {\\n ...\n  PUSH 1\t\t\tcontract SlavaUkrainToken {\\n ...\n  AND \t\t\tcontract SlavaUkrainToken {\\n ...\n  ISZERO \t\t\tcontract SlavaUkrainToken {\\n ...\n  PUSH 100\t\t\tcontract SlavaUkrainToken {\\n ...\n  MUL \t\t\tcontract SlavaUkrainToken {\\n ...\n  SUB \t\t\tcontract SlavaUkrainToken {\\n ...\n  AND \t\t\tcontract SlavaUkrainToken {\\n ...\n  PUSH 2\t\t\tcontract SlavaUkrainToken {\\n ...\n  SWAP1 \t\t\tcontract SlavaUkrainToken {\\n ...\n  DIV \t\t\tcontract SlavaUkrainToken {\\n ...\n  SWAP1 \t\t\tcontract SlavaUkrainToken {\\n ...\n  PUSH 0\t\t\tcontract SlavaUkrainToken {\\n ...\n  MSTORE \t\t\tcontract SlavaUkrainToken {\\n ...\n  PUSH 20\t\t\tcontract SlavaUkrainToken {\\n ...\n  PUSH 0\t\t\tcontract SlavaUkrainToken {\\n ...\n  KECCAK256 \t\t\tcontract SlavaUkrainToken {\\n ...\n  SWAP1 \t\t\tcontract SlavaUkrainToken {\\n ...\n  PUSH 1F\t\t\tcontract SlavaUkrainToken {\\n ...\n  ADD \t\t\tcontract SlavaUkrainToken {\\n ...\n  PUSH 20\t\t\tcontract SlavaUkrainToken {\\n ...\n  SWAP1 \t\t\tcontract SlavaUkrainToken {\\n ...\n  DIV \t\t\tcontract SlavaUkrainToken {\\n ...\n  DUP2 \t\t\tcontract SlavaUkrainToken {\\n ...\n  ADD \t\t\tcontract SlavaUkrainToken {\\n ...\n  SWAP3 \t\t\tcontract SlavaUkrainToken {\\n ...\n  DUP3 \t\t\tcontract SlavaUkrainToken {\\n ...\n  PUSH 1F\t\t\tcontract SlavaUkrainToken {\\n ...\n  LT \t\t\tcontract SlavaUkrainToken {\\n ...\n  PUSH [tag] 9\t\t\tcontract SlavaUkrainToken {\\n ...\n  JUMPI \t\t\tcontract SlavaUkrainToken {\\n ...\n  DUP1 \t\t\tcontract SlavaUkrainToken {\\n ...\n  MLOAD \t\t\tcontract SlavaUkrainToken {\\n ...\n  PUSH FF\t\t\tcontract SlavaUkrainToken {\\n ...\n  NOT \t\t\tcontract SlavaUkrainToken {\\n ...\n  AND \t\t\tcontract SlavaUkrainToken {\\n ...\n  DUP4 \t\t\tcontract SlavaUkrainToken {\\n ...\n  DUP1 \t\t\tcontract SlavaUkrainToken {\\n ...\n  ADD \t\t\tcontract SlavaUkrainToken {\\n ...\n  OR \t\t\tcontract SlavaUkrainToken {\\n ...\n  DUP6 \t\t\tcontract SlavaUkrainToken {\\n ...\n  SSTORE \t\t\tcontract SlavaUkrainToken {\\n ...\n  PUSH [tag] 11\t\t\tcontract SlavaUkrainToken {\\n ...\n  JUMP \t\t\tcontract SlavaUkrainToken {\\n ...\ntag 9\t\t\tcontract SlavaUkrainToken {\\n ...\n  JUMPDEST \t\t\tcontract SlavaUkrainToken {\\n ...\n  DUP3 \t\t\tcontract SlavaUkrainToken {\\n ...\n  DUP1 \t\t\tcontract SlavaUkrainToken {\\n ...\n  ADD \t\t\tcontract SlavaUkrainToken {\\n ...\n  PUSH 1\t\t\tcontract SlavaUkrainToken {\\n ...\n  ADD \t\t\tcontract SlavaUkrainToken {\\n ...\n  DUP6 \t\t\tcontract SlavaUkrainToken {\\n ...\n  SSTORE \t\t\tcontract SlavaUkrainToken {\\n ...\n  DUP3 \t\t\tcontract SlavaUkrainToken {\\n ...\n  ISZERO \t\t\tcontract SlavaUkrainToken {\\n ...\n  PUSH [tag] 11\t\t\tcontract SlavaUkrainToken {\\n ...\n  JUMPI \t\t\tcontract SlavaUkrainToken {\\n ...\n  SWAP2 \t\t\tcontract SlavaUkrainToken {\\n ...\n  DUP3 \t\t\tcontract SlavaUkrainToken {\\n ...\n  ADD \t\t\tcontract SlavaUkrainToken {\\n ...\ntag 10\t\t\tcontract SlavaUkrainToken {\\n ...\n  JUMPDEST \t\t\tcontract SlavaUkrainToken {\\n ...\n  DUP3 \t\t\tcontract SlavaUkrainToken {\\n ...\n  DUP2 \t\t\tcontract SlavaUkrainToken {\\n ...\n  GT \t\t\tcontract SlavaUkrainToken {\\n ...\n  ISZERO \t\t\tcontract SlavaUkrainToken {\\n ...\n  PUSH [tag] 11\t\t\tcontract SlavaUkrainToken {\\n ...\n  JUMPI \t\t\tcontract SlavaUkrainToken {\\n ...\n  DUP3 \t\t\tcontract SlavaUkrainToken {\\n ...\n  MLOAD \t\t\tcontract SlavaUkrainToken {\\n ...\n  DUP3 \t\t\tcontract SlavaUkrainToken {\\n ...\n  SSTORE \t\t\tcontract SlavaUkrainToken {\\n ...\n  SWAP2 \t\t\tcontract SlavaUkrainToken {\\n ...\n  PUSH 20\t\t\tcontract SlavaUkrainToken {\\n ...\n  ADD \t\t\tcontract SlavaUkrainToken {\\n ...\n  SWAP2 \t\t\tcontract SlavaUkrainToken {\\n ...\n  SWAP1 \t\t\tcontract SlavaUkrainToken {\\n ...\n  PUSH 1\t\t\tcontract SlavaUkrainToken {\\n ...\n  ADD \t\t\tcontract SlavaUkrainToken {\\n ...\n  SWAP1 \t\t\tcontract SlavaUkrainToken {\\n ...\n  PUSH [tag] 10\t\t\tcontract SlavaUkrainToken {\\n ...\n  JUMP \t\t\tcontract SlavaUkrainToken {\\n ...\ntag 11\t\t\tcontract SlavaUkrainToken {\\n ...\n  JUMPDEST \t\t\tcontract SlavaUkrainToken {\\n ...\n  POP \t\t\t\n  PUSH [tag] 12\t\t\tcontract SlavaUkrainToken {\\n ...\n  SWAP3 \t\t\tcontract SlavaUkrainToken {\\n ...\n  SWAP2 \t\t\tcontract SlavaUkrainToken {\\n ...\n  POP \t\t\t\n  PUSH [tag] 13\t\t\tcontract SlavaUkrainToken {\\n ...\n  JUMP [in]\t\t\tcontract SlavaUkrainToken {\\n ...\ntag 12\t\t\tcontract SlavaUkrainToken {\\n ...\n  JUMPDEST \t\t\tcontract SlavaUkrainToken {\\n ...\n  POP \t\t\tcontract SlavaUkrainToken {\\n ...\n  SWAP1 \t\t\tcontract SlavaUkrainToken {\\n ...\n  JUMP [out]\t\t\tcontract SlavaUkrainToken {\\n ...\ntag 13\t\t\tcontract SlavaUkrainToken {\\n ...\n  JUMPDEST \t\t\tcontract SlavaUkrainToken {\\n ...\n  PUSH [tag] 14\t\t\tcontract SlavaUkrainToken {\\n ...\n  SWAP2 \t\t\tcontract SlavaUkrainToken {\\n ...\n  SWAP1 \t\t\tcontract SlavaUkrainToken {\\n ...\ntag 15\t\t\tcontract SlavaUkrainToken {\\n ...\n  JUMPDEST \t\t\tcontract SlavaUkrainToken {\\n ...\n  DUP1 \t\t\tcontract SlavaUkrainToken {\\n ...\n  DUP3 \t\t\tcontract SlavaUkrainToken {\\n ...\n  GT \t\t\tcontract SlavaUkrainToken {\\n ...\n  ISZERO \t\t\tcontract SlavaUkrainToken {\\n ...\n  PUSH [tag] 12\t\t\tcontract SlavaUkrainToken {\\n ...\n  JUMPI \t\t\tcontract SlavaUkrainToken {\\n ...\n  PUSH 0\t\t\tcontract SlavaUkrainToken {\\n ...\n  DUP2 \t\t\tcontract SlavaUkrainToken {\\n ...\n  SSTORE \t\t\tcontract SlavaUkrainToken {\\n ...\n  PUSH 1\t\t\tcontract SlavaUkrainToken {\\n ...\n  ADD \t\t\tcontract SlavaUkrainToken {\\n ...\n  PUSH [tag] 15\t\t\tcontract SlavaUkrainToken {\\n ...\n  JUMP \t\t\tcontract SlavaUkrainToken {\\n ...\ntag 14\t\t\tcontract SlavaUkrainToken {\\n ...\n  JUMPDEST \t\t\tcontract SlavaUkrainToken {\\n ...\n  SWAP1 \t\t\tcontract SlavaUkrainToken {\\n ...\n  JUMP [out]\t\t\tcontract SlavaUkrainToken {\\n ...\ntag 7\t\t\tcontract SlavaUkrainToken {\\n ...\n  JUMPDEST \t\t\tcontract SlavaUkrainToken {\\n ...\n  PUSH #[$] 0000000000000000000000000000000000000000000000000000000000000000\t\t\tcontract SlavaUkrainToken {\\n ...\n  DUP1 \t\t\tcontract SlavaUkrainToken {\\n ...\n  PUSH [$] 0000000000000000000000000000000000000000000000000000000000000000\t\t\tcontract SlavaUkrainToken {\\n ...\n  PUSH 0\t\t\tcontract SlavaUkrainToken {\\n ...\n  CODECOPY \t\t\tcontract SlavaUkrainToken {\\n ...\n  PUSH 0\t\t\tcontract SlavaUkrainToken {\\n ...\n  RETURN \t\t\tcontract SlavaUkrainToken {\\n ...\n.data\n  0:\n    .code\n      PUSH 80\t\t\tcontract SlavaUkrainToken {\\n ...\n      PUSH 40\t\t\tcontract SlavaUkrainToken {\\n ...\n      MSTORE \t\t\tcontract SlavaUkrainToken {\\n ...\n      CALLVALUE \t\t\tcontract SlavaUkrainToken {\\n ...\n      DUP1 \t\t\tLicense-I\n      ISZERO \t\t\tDX\n      PUSH [tag] 1\t\t\tDX\n      JUMPI \t\t\tDX\n      PUSH 0\t\t\tT\n      DUP1 \t\t\t \n      REVERT \t\t\ttifier: MIT\\n\n    tag 1\t\t\tDX\n      JUMPDEST \t\t\tDX\n      POP \t\t\tcontract SlavaUkrainToken {\\n ...\n      PUSH 4\t\t\tcontract SlavaUkrainToken {\\n ...\n      CALLDATASIZE \t\t\tcontract SlavaUkrainToken {\\n ...\n      LT \t\t\tcontract SlavaUkrainToken {\\n ...\n      PUSH [tag] 2\t\t\tcontract SlavaUkrainToken {\\n ...\n      JUMPI \t\t\tcontract SlavaUkrainToken {\\n ...\n      PUSH 0\t\t\tcontract SlavaUkrainToken {\\n ...\n      CALLDATALOAD \t\t\tcontract SlavaUkrainToken {\\n ...\n      PUSH E0\t\t\tcontract SlavaUkrainToken {\\n ...\n      SHR \t\t\tcontract SlavaUkrainToken {\\n ...\n      DUP1 \t\t\tcontract SlavaUkrainToken {\\n ...\n      PUSH 313CE567\t\t\tcontract SlavaUkrainToken {\\n ...\n      GT \t\t\tcontract SlavaUkrainToken {\\n ...\n      PUSH [tag] 16\t\t\tcontract SlavaUkrainToken {\\n ...\n      JUMPI \t\t\tcontract SlavaUkrainToken {\\n ...\n      DUP1 \t\t\tcontract SlavaUkrainToken {\\n ...\n      PUSH 95D89B41\t\t\tcontract SlavaUkrainToken {\\n ...\n      GT \t\t\tcontract SlavaUkrainToken {\\n ...\n      PUSH [tag] 17\t\t\tcontract SlavaUkrainToken {\\n ...\n      JUMPI \t\t\tcontract SlavaUkrainToken {\\n ...\n      DUP1 \t\t\tcontract SlavaUkrainToken {\\n ...\n      PUSH 95D89B41\t\t\tcontract SlavaUkrainToken {\\n ...\n      EQ \t\t\tcontract SlavaUkrainToken {\\n ...\n      PUSH [tag] 12\t\t\tcontract SlavaUkrainToken {\\n ...\n      JUMPI \t\t\tcontract SlavaUkrainToken {\\n ...\n      DUP1 \t\t\tcontract SlavaUkrainToken {\\n ...\n      PUSH A9059CBB\t\t\tcontract SlavaUkrainToken {\\n ...\n      EQ \t\t\tcontract SlavaUkrainToken {\\n ...\n      PUSH [tag] 13\t\t\tcontract SlavaUkrainToken {\\n ...\n      JUMPI \t\t\tcontract SlavaUkrainToken {\\n ...\n      DUP1 \t\t\tcontract SlavaUkrainToken {\\n ...\n      PUSH C4E41B22\t\t\tcontract SlavaUkrainToken {\\n ...\n      EQ \t\t\tcontract SlavaUkrainToken {\\n ...\n      PUSH [tag] 14\t\t\tcontract SlavaUkrainToken {\\n ...\n      JUMPI \t\t\tcontract SlavaUkrainToken {\\n ...\n      DUP1 \t\t\tcontract SlavaUkrainToken {\\n ...\n      PUSH DD62ED3E\t\t\tcontract SlavaUkrainToken {\\n ...\n      EQ \t\t\tcontract SlavaUkrainToken {\\n ...\n      PUSH [tag] 15\t\t\tcontract SlavaUkrainToken {\\n ...\n      JUMPI \t\t\tcontract SlavaUkrainToken {\\n ...\n      PUSH [tag] 2\t\t\tcontract SlavaUkrainToken {\\n ...\n      JUMP \t\t\tcontract SlavaUkrainToken {\\n ...\n    tag 17\t\t\tcontract SlavaUkrainToken {\\n ...\n      JUMPDEST \t\t\tcontract SlavaUkrainToken {\\n ...\n      DUP1 \t\t\tcontract SlavaUkrainToken {\\n ...\n      PUSH 313CE567\t\t\tcontract SlavaUkrainToken {\\n ...\n      EQ \t\t\tcontract SlavaUkrainToken {\\n ...\n      PUSH [tag] 9\t\t\tcontract SlavaUkrainToken {\\n ...\n      JUMPI \t\t\tcontract SlavaUkrainToken {\\n ...\n      DUP1 \t\t\tcontract SlavaUkrainToken {\\n ...\n      PUSH 42966C68\t\t\tcontract SlavaUkrainToken {\\n ...\n      EQ \t\t\tcontract SlavaUkrainToken {\\n ...\n      PUSH [tag] 10\t\t\tcontract SlavaUkrainToken {\\n ...\n      JUMPI \t\t\tcontract SlavaUkrainToken {\\n ...\n      DUP1 \t\t\tcontract SlavaUkrainToken {\\n ...\n      PUSH 70A08231\t\t\tcontract SlavaUkrainToken {\\n ...\n      EQ \t\t\tcontract SlavaUkrainToken {\\n ...\n      PUSH [tag] 11\t\t\tcontract SlavaUkrainToken {\\n ...\n      JUMPI \t\t\tcontract SlavaUkrainToken {\\n ...\n      PUSH [tag] 2\t\t\tcontract SlavaUkrainToken {\\n ...\n      JUMP \t\t\tcontract SlavaUkrainToken {\\n ...\n    tag 16\t\t\tcontract SlavaUkrainToken {\\n ...\n      JUMPDEST \t\t\tcontract SlavaUkrainToken {\\n ...\n      DUP1 \t\t\tcontract SlavaUkrainToken {\\n ...\n      PUSH 6FDDE03\t\t\tcontract SlavaUkrainToken {\\n ...\n      EQ \t\t\tcontract SlavaUkrainToken {\\n ...\n      PUSH [tag] 3\t\t\tcontract SlavaUkrainToken {\\n ...\n      JUMPI \t\t\tcontract SlavaUkrainToken {\\n ...\n      DUP1 \t\t\tcontract SlavaUkrainToken {\\n ...\n      PUSH 95EA7B3\t\t\tcontract SlavaUkrainToken {\\n ...\n      EQ \t\t\tcontract SlavaUkrainToken {\\n ...\n      PUSH [tag] 4\t\t\tcontract SlavaUkrainToken {\\n ...\n      JUMPI \t\t\tcontract SlavaUkrainToken {\\n ...\n      DUP1 \t\t\tcontract SlavaUkrainToken {\\n ...\n      PUSH 15070401\t\t\tcontract SlavaUkrainToken {\\n ...\n      EQ \t\t\tcontract SlavaUkrainToken {\\n ...\n      PUSH [tag] 5\t\t\tcontract SlavaUkrainToken {\\n ...\n      JUMPI \t\t\tcontract SlavaUkrainToken {\\n ...\n      DUP1 \t\t\tcontract SlavaUkrainToken {\\n ...\n      PUSH 17D7DE7C\t\t\tcontract SlavaUkrainToken {\\n ...\n      EQ \t\t\tcontract SlavaUkrainToken {\\n ...\n      PUSH [tag] 6\t\t\tcontract SlavaUkrainToken {\\n ...\n      JUMPI \t\t\tcontract SlavaUkrainToken {\\n ...\n      DUP1 \t\t\tcontract SlavaUkrainToken {\\n ...\n      PUSH 18160DDD\t\t\tcontract SlavaUkrainToken {\\n ...\n      EQ \t\t\tcontract SlavaUkrainToken {\\n ...\n      PUSH [tag] 7\t\t\tcontract SlavaUkrainToken {\\n ...\n      JUMPI \t\t\tcontract SlavaUkrainToken {\\n ...\n      DUP1 \t\t\tcontract SlavaUkrainToken {\\n ...\n      PUSH 23B872DD\t\t\tcontract SlavaUkrainToken {\\n ...\n      EQ \t\t\tcontract SlavaUkrainToken {\\n ...\n      PUSH [tag] 8\t\t\tcontract SlavaUkrainToken {\\n ...\n      JUMPI \t\t\tcontract SlavaUkrainToken {\\n ...\n    tag 2\t\t\tcontract SlavaUkrainToken {\\n ...\n      JUMPDEST \t\t\tcontract SlavaUkrainToken {\\n ...\n      PUSH 0\t\t\tcontract SlavaUkrainToken {\\n ...\n      DUP1 \t\t\tcontract SlavaUkrainToken {\\n ...\n      REVERT \t\t\tcontract SlavaUkrainToken {\\n ...\n    tag 3\t\t\tstring public name = \"SlavaUkr...\n      JUMPDEST \t\t\tstring public name = \"SlavaUkr...\n      PUSH [tag] 18\t\t\tstring public name = \"SlavaUkr...\n      PUSH [tag] 19\t\t\tstring public name = \"SlavaUkr...\n      JUMP [in]\t\t\tstring public name = \"SlavaUkr...\n    tag 18\t\t\tstring public name = \"SlavaUkr...\n      JUMPDEST \t\t\tstring public name = \"SlavaUkr...\n      PUSH 40\t\t\tstring public name = \"SlavaUkr...\n      DUP1 \t\t\tstring public name = \"SlavaUkr...\n      MLOAD \t\t\tstring public name = \"SlavaUkr...\n      PUSH 20\t\t\tstring public name = \"SlavaUkr...\n      DUP1 \t\t\tstring public name = \"SlavaUkr...\n      DUP3 \t\t\tstring public name = \"SlavaUkr...\n      MSTORE \t\t\tstring public name = \"SlavaUkr...\n      DUP4 \t\t\tstring public name = \"SlavaUkr...\n      MLOAD \t\t\tstring public name = \"SlavaUkr...\n      DUP2 \t\t\tstring public name = \"SlavaUkr...\n      DUP4 \t\t\tstring public name = \"SlavaUkr...\n      ADD \t\t\tstring public name = \"SlavaUkr...\n      MSTORE \t\t\tstring public name = \"SlavaUkr...\n      DUP4 \t\t\tstring public name = \"SlavaUkr...\n      MLOAD \t\t\tstring public name = \"SlavaUkr...\n      SWAP2 \t\t\tstring public name = \"SlavaUkr...\n      SWAP3 \t\t\tstring public name = \"SlavaUkr...\n      DUP4 \t\t\tstring public name = \"SlavaUkr...\n      SWAP3 \t\t\tstring public name = \"SlavaUkr...\n      SWAP1 \t\t\tstring public name = \"SlavaUkr...\n      DUP4 \t\t\tstring public name = \"SlavaUkr...\n      ADD \t\t\tstring public name = \"SlavaUkr...\n      SWAP2 \t\t\tstring public name = \"SlavaUkr...\n      DUP6 \t\t\tstring public name = \"SlavaUkr...\n      ADD \t\t\tstring public name = \"SlavaUkr...\n      SWAP1 \t\t\tstring public name = \"SlavaUkr...\n      DUP1 \t\t\tstring public name = \"SlavaUkr...\n      DUP4 \t\t\tstring public name = \"SlavaUkr...\n      DUP4 \t\t\tstring public name = \"SlavaUkr...\n      PUSH 0\t\t\tstring public name = \"SlavaUkr...\n    tag 20\t\t\tLicense-Identifier: MIT\\npragm...\n      JUMPDEST \t\t\tLicense-Identifier: MIT\\npragm...\n      DUP4 \t\t\trag\n      DUP2 \t\t\tT\n      LT \t\t\t MIT\\npragm\n      ISZERO \t\t\tLicense-Identifier: MIT\\npragm...\n      PUSH [tag] 22\t\t\tLicense-Identifier: MIT\\npragm...\n      JUMPI \t\t\tLicense-Identifier: MIT\\npragm...\n      DUP2 \t\t\ttring publi\n      DUP2 \t\t\ttring publi\n      ADD \t\t\ttring publi\n      MLOAD \t\t\t\\n    string public\n      DUP4 \t\t\tUkrainToken\n      DUP3 \t\t\tUkrainToken\n      ADD \t\t\tUkrainToken\n      MSTORE \t\t\tt SlavaUkrainToken {\\n    stri...\n      PUSH 20\t\t\t.8\n      ADD \t\t\tty ^0.5.8;\n      PUSH [tag] 20\t\t\tLicense-Identifier: MIT\\npragm...\n      JUMP \t\t\tLicense-Identifier: MIT\\npragm...\n    tag 22\t\t\tLicense-Identifier: MIT\\npragm...\n      JUMPDEST \t\t\tLicense-Identifier: MIT\\npragm...\n      POP \t\t\tnse-Identifier\n      POP \t\t\tstring public name = \"SlavaUkr...\n      POP \t\t\tstring public name = \"SlavaUkr...\n      POP \t\t\tstring public name = \"SlavaUkr...\n      SWAP1 \t\t\tstring public name = \"SlavaUkr...\n      POP \t\t\tstring public name = \"SlavaUkr...\n      SWAP1 \t\t\tstring public name = \"SlavaUkr...\n      DUP2 \t\t\tstring public name = \"SlavaUkr...\n      ADD \t\t\tstring public name = \"SlavaUkr...\n      SWAP1 \t\t\tstring public name = \"SlavaUkr...\n      PUSH 1F\t\t\tstring public name = \"SlavaUkr...\n      AND \t\t\tstring public name = \"SlavaUkr...\n      DUP1 \t\t\tstring public name = \"SlavaUkr...\n      ISZERO \t\t\tstring public name = \"SlavaUkr...\n      PUSH [tag] 23\t\t\tstring public name = \"SlavaUkr...\n      JUMPI \t\t\tstring public name = \"SlavaUkr...\n      DUP1 \t\t\tstring public name = \"SlavaUkr...\n      DUP3 \t\t\tstring public name = \"SlavaUkr...\n      SUB \t\t\tstring public name = \"SlavaUkr...\n      DUP1 \t\t\tstring public name = \"SlavaUkr...\n      MLOAD \t\t\tstring public name = \"SlavaUkr...\n      PUSH 1\t\t\tstring public name = \"SlavaUkr...\n      DUP4 \t\t\tstring public name = \"SlavaUkr...\n      PUSH 20\t\t\tstring public name = \"SlavaUkr...\n      SUB \t\t\tstring public name = \"SlavaUkr...\n      PUSH 100\t\t\tstring public name = \"SlavaUkr...\n      EXP \t\t\tstring public name = \"SlavaUkr...\n      SUB \t\t\tstring public name = \"SlavaUkr...\n      NOT \t\t\tstring public name = \"SlavaUkr...\n      AND \t\t\tstring public name = \"SlavaUkr...\n      DUP2 \t\t\tstring public name = \"SlavaUkr...\n      MSTORE \t\t\tstring public name = \"SlavaUkr...\n      PUSH 20\t\t\tstring public name = \"SlavaUkr...\n      ADD \t\t\tstring public name = \"SlavaUkr...\n      SWAP2 \t\t\tstring public name = \"SlavaUkr...\n      POP \t\t\tstring public name = \"SlavaUkr...\n    tag 23\t\t\tstring public name = \"SlavaUkr...\n      JUMPDEST \t\t\tstring public name = \"SlavaUkr...\n      POP \t\t\tstring public name = \"SlavaUkr...\n      SWAP3 \t\t\tstring public name = \"SlavaUkr...\n      POP \t\t\tstring public name = \"SlavaUkr...\n      POP \t\t\tstring public name = \"SlavaUkr...\n      POP \t\t\tstring public name = \"SlavaUkr...\n      PUSH 40\t\t\tstring public name = \"SlavaUkr...\n      MLOAD \t\t\tstring public name = \"SlavaUkr...\n      DUP1 \t\t\tstring public name = \"SlavaUkr...\n      SWAP2 \t\t\tstring public name = \"SlavaUkr...\n      SUB \t\t\tstring public name = \"SlavaUkr...\n      SWAP1 \t\t\tstring public name = \"SlavaUkr...\n      RETURN \t\t\tstring public name = \"SlavaUkr...\n    tag 4\t\t\tprove(address spender, uint256...\n      JUMPDEST \t\t\tprove(address spender, uint256...\n      PUSH [tag] 24\t\t\tprove(address spender, uint256...\n      PUSH 4\t\t\tprove(address spender, uint256...\n      DUP1 \t\t\tprove(address spender, uint256...\n      CALLDATASIZE \t\t\tprove(address spender, uint256...\n      SUB \t\t\tprove(address spender, uint256...\n      PUSH 40\t\t\tse\n      DUP2 \t\t\tLic\n      LT \t\t\tDX-License-\n      ISZERO \t\t\t S\n      PUSH [tag] 25\t\t\t S\n      JUMPI \t\t\t S\n      PUSH 0\t\t\tI\n      DUP1 \t\t\t:\n      REVERT \t\t\tntifier: MIT\n    tag 25\t\t\t S\n      JUMPDEST \t\t\t S\n      POP \t\t\t\n      PUSH 1\t\t\t\n      PUSH 1\t\t\t\n      PUSH A0\t\t\t\n      SHL \t\t\t\n      SUB \t\t\t\n      DUP2 \t\t\tprove(address spender, uint256...\n      CALLDATALOAD \t\t\tprove(address spender, uint256...\n      AND \t\t\tprove(address spender, uint256...\n      SWAP1 \t\t\tprove(address spender, uint256...\n      PUSH 20\t\t\tprove(address spender, uint256...\n      ADD \t\t\tprove(address spender, uint256...\n      CALLDATALOAD \t\t\tprove(address spender, uint256...\n      PUSH [tag] 26\t\t\tprove(address spender, uint256...\n      JUMP [in]\t\t\tprove(address spender, uint256...\n    tag 24\t\t\tprove(address spender, uint256...\n      JUMPDEST \t\t\tprove(address spender, uint256...\n      PUSH 40\t\t\tprove(address spender, uint256...\n      DUP1 \t\t\tprove(address spender, uint256...\n      MLOAD \t\t\tprove(address spender, uint256...\n      SWAP2 \t\t\tprove(address spender, uint256...\n      ISZERO \t\t\tprove(address spender, uint256...\n      ISZERO \t\t\tprove(address spender, uint256...\n      DUP3 \t\t\tprove(address spender, uint256...\n      MSTORE \t\t\tprove(address spender, uint256...\n      MLOAD \t\t\tprove(address spender, uint256...\n      SWAP1 \t\t\tprove(address spender, uint256...\n      DUP2 \t\t\tprove(address spender, uint256...\n      SWAP1 \t\t\tprove(address spender, uint256...\n      SUB \t\t\tprove(address spender, uint256...\n      PUSH 20\t\t\tprove(address spender, uint256...\n      ADD \t\t\tprove(address spender, uint256...\n      SWAP1 \t\t\tprove(address spender, uint256...\n      RETURN \t\t\tprove(address spender, uint256...\n    tag 5\t\t\t) public view returns (string ...\n      JUMPDEST \t\t\t) public view returns (string ...\n      PUSH [tag] 18\t\t\t) public view returns (string ...\n      PUSH [tag] 28\t\t\t) public view returns (string ...\n      JUMP [in]\t\t\t) public view returns (string ...\n    tag 6\t\t\tpublic view returns (string me...\n      JUMPDEST \t\t\tpublic view returns (string me...\n      PUSH [tag] 18\t\t\tpublic view returns (string me...\n      PUSH [tag] 34\t\t\tpublic view returns (string me...\n      JUMP [in]\t\t\tpublic view returns (string me...\n    tag 7\t\t\tint256 public totalSupply;\n      JUMPDEST \t\t\tint256 public totalSupply;\n      PUSH [tag] 39\t\t\tint256 public totalSupply;\n      PUSH [tag] 40\t\t\tint256 public totalSupply;\n      JUMP [in]\t\t\tint256 public totalSupply;\n    tag 39\t\t\tint256 public totalSupply;\n      JUMPDEST \t\t\tint256 public totalSupply;\n      PUSH 40\t\t\tint256 public totalSupply;\n      DUP1 \t\t\tint256 public totalSupply;\n      MLOAD \t\t\tint256 public totalSupply;\n      SWAP2 \t\t\tint256 public totalSupply;\n      DUP3 \t\t\tint256 public totalSupply;\n      MSTORE \t\t\tint256 public totalSupply;\n      MLOAD \t\t\tint256 public totalSupply;\n      SWAP1 \t\t\tint256 public totalSupply;\n      DUP2 \t\t\tint256 public totalSupply;\n      SWAP1 \t\t\tint256 public totalSupply;\n      SUB \t\t\tint256 public totalSupply;\n      PUSH 20\t\t\tint256 public totalSupply;\n      ADD \t\t\tint256 public totalSupply;\n      SWAP1 \t\t\tint256 public totalSupply;\n      RETURN \t\t\tint256 public totalSupply;\n    tag 8\t\t\tsferFrom(address sender, addre...\n      JUMPDEST \t\t\tsferFrom(address sender, addre...\n      PUSH [tag] 24\t\t\tsferFrom(address sender, addre...\n      PUSH 4\t\t\tsferFrom(address sender, addre...\n      DUP1 \t\t\tsferFrom(address sender, addre...\n      CALLDATASIZE \t\t\tsferFrom(address sender, addre...\n      SUB \t\t\tsferFrom(address sender, addre...\n      PUSH 60\t\t\tse\n      DUP2 \t\t\tLic\n      LT \t\t\tDX-License-\n      ISZERO \t\t\t S\n      PUSH [tag] 42\t\t\t S\n      JUMPI \t\t\t S\n      PUSH 0\t\t\tI\n      DUP1 \t\t\t:\n      REVERT \t\t\tntifier: MIT\n    tag 42\t\t\t S\n      JUMPDEST \t\t\t S\n      POP \t\t\t\n      PUSH 1\t\t\t\n      PUSH 1\t\t\t\n      PUSH A0\t\t\t\n      SHL \t\t\t\n      SUB \t\t\t\n      DUP2 \t\t\tsferFrom(address sender, addre...\n      CALLDATALOAD \t\t\tsferFrom(address sender, addre...\n      DUP2 \t\t\tsferFrom(address sender, addre...\n      AND \t\t\tsferFrom(address sender, addre...\n      SWAP2 \t\t\tsferFrom(address sender, addre...\n      PUSH 20\t\t\tsferFrom(address sender, addre...\n      DUP2 \t\t\tsferFrom(address sender, addre...\n      ADD \t\t\tsferFrom(address sender, addre...\n      CALLDATALOAD \t\t\tsferFrom(address sender, addre...\n      SWAP1 \t\t\tsferFrom(address sender, addre...\n      SWAP2 \t\t\tsferFrom(address sender, addre...\n      AND \t\t\tsferFrom(address sender, addre...\n      SWAP1 \t\t\tsferFrom(address sender, addre...\n      PUSH 40\t\t\tsferFrom(address sender, addre...\n      ADD \t\t\tsferFrom(address sender, addre...\n      CALLDATALOAD \t\t\tsferFrom(address sender, addre...\n      PUSH [tag] 43\t\t\tsferFrom(address sender, addre...\n      JUMP [in]\t\t\tsferFrom(address sender, addre...\n    tag 9\t\t\tint8 public decimals = 18;\n      JUMPDEST \t\t\tint8 public decimals = 18;\n      PUSH [tag] 44\t\t\tint8 public decimals = 18;\n      PUSH [tag] 45\t\t\tint8 public decimals = 18;\n      JUMP [in]\t\t\tint8 public decimals = 18;\n    tag 44\t\t\tint8 public decimals = 18;\n      JUMPDEST \t\t\tint8 public decimals = 18;\n      PUSH 40\t\t\tint8 public decimals = 18;\n      DUP1 \t\t\tint8 public decimals = 18;\n      MLOAD \t\t\tint8 public decimals = 18;\n      PUSH FF\t\t\tint8 public decimals = 18;\n      SWAP1 \t\t\tint8 public decimals = 18;\n      SWAP3 \t\t\tint8 public decimals = 18;\n      AND \t\t\tint8 public decimals = 18;\n      DUP3 \t\t\tint8 public decimals = 18;\n      MSTORE \t\t\tint8 public decimals = 18;\n      MLOAD \t\t\tint8 public decimals = 18;\n      SWAP1 \t\t\tint8 public decimals = 18;\n      DUP2 \t\t\tint8 public decimals = 18;\n      SWAP1 \t\t\tint8 public decimals = 18;\n      SUB \t\t\tint8 public decimals = 18;\n      PUSH 20\t\t\tint8 public decimals = 18;\n      ADD \t\t\tint8 public decimals = 18;\n      SWAP1 \t\t\tint8 public decimals = 18;\n      RETURN \t\t\tint8 public decimals = 18;\n    tag 10\t\t\tnt256 amount) public returns (...\n      JUMPDEST \t\t\tnt256 amount) public returns (...\n      PUSH [tag] 24\t\t\tnt256 amount) public returns (...\n      PUSH 4\t\t\tnt256 amount) public returns (...\n      DUP1 \t\t\tnt256 amount) public returns (...\n      CALLDATASIZE \t\t\tnt256 amount) public returns (...\n      SUB \t\t\tnt256 amount) public returns (...\n      PUSH 20\t\t\tse\n      DUP2 \t\t\tLic\n      LT \t\t\tDX-License-\n      ISZERO \t\t\t S\n      PUSH [tag] 47\t\t\t S\n      JUMPI \t\t\t S\n      PUSH 0\t\t\tI\n      DUP1 \t\t\t:\n      REVERT \t\t\tntifier: MIT\n    tag 47\t\t\t S\n      JUMPDEST \t\t\t S\n      POP \t\t\t\n      CALLDATALOAD \t\t\tnt256 amount) public returns (...\n      PUSH [tag] 48\t\t\tnt256 amount) public returns (...\n      JUMP [in]\t\t\tnt256 amount) public returns (...\n    tag 11\t\t\tapping(address => uint256) pub...\n      JUMPDEST \t\t\tapping(address => uint256) pub...\n      PUSH [tag] 39\t\t\tapping(address => uint256) pub...\n      PUSH 4\t\t\tapping(address => uint256) pub...\n      DUP1 \t\t\tapping(address => uint256) pub...\n      CALLDATASIZE \t\t\tapping(address => uint256) pub...\n      SUB \t\t\tapping(address => uint256) pub...\n      PUSH 20\t\t\tse\n      DUP2 \t\t\tLic\n      LT \t\t\tDX-License-\n      ISZERO \t\t\t S\n      PUSH [tag] 50\t\t\t S\n      JUMPI \t\t\t S\n      PUSH 0\t\t\tI\n      DUP1 \t\t\t:\n      REVERT \t\t\tntifier: MIT\n    tag 50\t\t\t S\n      JUMPDEST \t\t\t S\n      POP \t\t\t\n      CALLDATALOAD \t\t\tapping(address => uint256) pub...\n      PUSH 1\t\t\t\n      PUSH 1\t\t\t\n      PUSH A0\t\t\t\n      SHL \t\t\t\n      SUB \t\t\t\n      AND \t\t\tapping(address => uint256) pub...\n      PUSH [tag] 51\t\t\tapping(address => uint256) pub...\n      JUMP [in]\t\t\tapping(address => uint256) pub...\n    tag 12\t\t\tstring public symbol = \"SUT\"\n      JUMPDEST \t\t\tstring public symbol = \"SUT\"\n      PUSH [tag] 18\t\t\tstring public symbol = \"SUT\"\n      PUSH [tag] 53\t\t\tstring public symbol = \"SUT\"\n      JUMP [in]\t\t\tstring public symbol = \"SUT\"\n    tag 13\t\t\tn transfer(address recipient, ...\n      JUMPDEST \t\t\tn transfer(address recipient, ...\n      PUSH [tag] 24\t\t\tn transfer(address recipient, ...\n      PUSH 4\t\t\tn transfer(address recipient, ...\n      DUP1 \t\t\tn transfer(address recipient, ...\n      CALLDATASIZE \t\t\tn transfer(address recipient, ...\n      SUB \t\t\tn transfer(address recipient, ...\n      PUSH 40\t\t\tse\n      DUP2 \t\t\tLic\n      LT \t\t\tDX-License-\n      ISZERO \t\t\t S\n      PUSH [tag] 59\t\t\t S\n      JUMPI \t\t\t S\n      PUSH 0\t\t\tI\n      DUP1 \t\t\t:\n      REVERT \t\t\tntifier: MIT\n    tag 59\t\t\t S\n      JUMPDEST \t\t\t S\n      POP \t\t\t\n      PUSH 1\t\t\t\n      PUSH 1\t\t\t\n      PUSH A0\t\t\t\n      SHL \t\t\t\n      SUB \t\t\t\n      DUP2 \t\t\tn transfer(address recipient, ...\n      CALLDATALOAD \t\t\tn transfer(address recipient, ...\n      AND \t\t\tn transfer(address recipient, ...\n      SWAP1 \t\t\tn transfer(address recipient, ...\n      PUSH 20\t\t\tn transfer(address recipient, ...\n      ADD \t\t\tn transfer(address recipient, ...\n      CALLDATALOAD \t\t\tn transfer(address recipient, ...\n      PUSH [tag] 60\t\t\tn transfer(address recipient, ...\n      JUMP [in]\t\t\tn transfer(address recipient, ...\n    tag 14\t\t\tpply() public view returns (ui...\n      JUMPDEST \t\t\tpply() public view returns (ui...\n      PUSH [tag] 39\t\t\tpply() public view returns (ui...\n      PUSH [tag] 62\t\t\tpply() public view returns (ui...\n      JUMP [in]\t\t\tpply() public view returns (ui...\n    tag 15\t\t\tapping(address => mapping(addr...\n      JUMPDEST \t\t\tapping(address => mapping(addr...\n      PUSH [tag] 39\t\t\tapping(address => mapping(addr...\n      PUSH 4\t\t\tapping(address => mapping(addr...\n      DUP1 \t\t\tapping(address => mapping(addr...\n      CALLDATASIZE \t\t\tapping(address => mapping(addr...\n      SUB \t\t\tapping(address => mapping(addr...\n      PUSH 40\t\t\tse\n      DUP2 \t\t\tLic\n      LT \t\t\tDX-License-\n      ISZERO \t\t\t S\n      PUSH [tag] 64\t\t\t S\n      JUMPI \t\t\t S\n      PUSH 0\t\t\tI\n      DUP1 \t\t\t:\n      REVERT \t\t\tntifier: MIT\n    tag 64\t\t\t S\n      JUMPDEST \t\t\t S\n      POP \t\t\t\n      PUSH 1\t\t\t\n      PUSH 1\t\t\t\n      PUSH A0\t\t\t\n      SHL \t\t\t\n      SUB \t\t\t\n      DUP2 \t\t\tapping(address => mapping(addr...\n      CALLDATALOAD \t\t\tapping(address => mapping(addr...\n      DUP2 \t\t\tapping(address => mapping(addr...\n      AND \t\t\tapping(address => mapping(addr...\n      SWAP2 \t\t\tapping(address => mapping(addr...\n      PUSH 20\t\t\tapping(address => mapping(addr...\n      ADD \t\t\tapping(address => mapping(addr...\n      CALLDATALOAD \t\t\tapping(address => mapping(addr...\n      AND \t\t\tapping(address => mapping(addr...\n      PUSH [tag] 65\t\t\tapping(address => mapping(addr...\n      JUMP [in]\t\t\tapping(address => mapping(addr...\n    tag 19\t\t\tstring public name = \"SlavaUkr...\n      JUMPDEST \t\t\tstring public name = \"SlavaUkr...\n      PUSH 0\t\t\tstring public name = \"SlavaUkr...\n      DUP1 \t\t\tstring public name = \"SlavaUkr...\n      SLOAD \t\t\tstring public name = \"SlavaUkr...\n      PUSH 40\t\t\tstring public name = \"SlavaUkr...\n      DUP1 \t\t\tstring public name = \"SlavaUkr...\n      MLOAD \t\t\tstring public name = \"SlavaUkr...\n      PUSH 20\t\t\tstring public name = \"SlavaUkr...\n      PUSH 2\t\t\tstring public name = \"SlavaUkr...\n      PUSH 1\t\t\tstring public name = \"SlavaUkr...\n      DUP6 \t\t\tstring public name = \"SlavaUkr...\n      AND \t\t\tstring public name = \"SlavaUkr...\n      ISZERO \t\t\tstring public name = \"SlavaUkr...\n      PUSH 100\t\t\tstring public name = \"SlavaUkr...\n      MUL \t\t\tstring public name = \"SlavaUkr...\n      PUSH 0\t\t\t\n      NOT \t\t\t\n      ADD \t\t\tstring public name = \"SlavaUkr...\n      SWAP1 \t\t\tstring public name = \"SlavaUkr...\n      SWAP5 \t\t\tstring public name = \"SlavaUkr...\n      AND \t\t\tstring public name = \"SlavaUkr...\n      SWAP4 \t\t\tstring public name = \"SlavaUkr...\n      SWAP1 \t\t\tstring public name = \"SlavaUkr...\n      SWAP4 \t\t\tstring public name = \"SlavaUkr...\n      DIV \t\t\tstring public name = \"SlavaUkr...\n      PUSH 1F\t\t\tstring public name = \"SlavaUkr...\n      DUP2 \t\t\tstring public name = \"SlavaUkr...\n      ADD \t\t\tstring public name = \"SlavaUkr...\n      DUP5 \t\t\tstring public name = \"SlavaUkr...\n      SWAP1 \t\t\tstring public name = \"SlavaUkr...\n      DIV \t\t\tstring public name = \"SlavaUkr...\n      DUP5 \t\t\tstring public name = \"SlavaUkr...\n      MUL \t\t\tstring public name = \"SlavaUkr...\n      DUP3 \t\t\tstring public name = \"SlavaUkr...\n      ADD \t\t\tstring public name = \"SlavaUkr...\n      DUP5 \t\t\tstring public name = \"SlavaUkr...\n      ADD \t\t\tstring public name = \"SlavaUkr...\n      SWAP1 \t\t\tstring public name = \"SlavaUkr...\n      SWAP3 \t\t\tstring public name = \"SlavaUkr...\n      MSTORE \t\t\tstring public name = \"SlavaUkr...\n      DUP2 \t\t\tstring public name = \"SlavaUkr...\n      DUP2 \t\t\tstring public name = \"SlavaUkr...\n      MSTORE \t\t\tstring public name = \"SlavaUkr...\n      SWAP3 \t\t\tstring public name = \"SlavaUkr...\n      SWAP2 \t\t\tstring public name = \"SlavaUkr...\n      DUP4 \t\t\tstring public name = \"SlavaUkr...\n      ADD \t\t\tstring public name = \"SlavaUkr...\n      DUP3 \t\t\tstring public name = \"SlavaUkr...\n      DUP3 \t\t\tstring public name = \"SlavaUkr...\n      DUP1 \t\t\tstring public name = \"SlavaUkr...\n      ISZERO \t\t\tstring public name = \"SlavaUkr...\n      PUSH [tag] 66\t\t\tstring public name = \"SlavaUkr...\n      JUMPI \t\t\tstring public name = \"SlavaUkr...\n      DUP1 \t\t\tstring public name = \"SlavaUkr...\n      PUSH 1F\t\t\tstring public name = \"SlavaUkr...\n      LT \t\t\tstring public name = \"SlavaUkr...\n      PUSH [tag] 67\t\t\tstring public name = \"SlavaUkr...\n      JUMPI \t\t\tstring public name = \"SlavaUkr...\n      PUSH 100\t\t\tstring public name = \"SlavaUkr...\n      DUP1 \t\t\tstring public name = \"SlavaUkr...\n      DUP4 \t\t\tstring public name = \"SlavaUkr...\n      SLOAD \t\t\tstring public name = \"SlavaUkr...\n      DIV \t\t\tstring public name = \"SlavaUkr...\n      MUL \t\t\tstring public name = \"SlavaUkr...\n      DUP4 \t\t\tstring public name = \"SlavaUkr...\n      MSTORE \t\t\tstring public name = \"SlavaUkr...\n      SWAP2 \t\t\tstring public name = \"SlavaUkr...\n      PUSH 20\t\t\tstring public name = \"SlavaUkr...\n      ADD \t\t\tstring public name = \"SlavaUkr...\n      SWAP2 \t\t\tstring public name = \"SlavaUkr...\n      PUSH [tag] 66\t\t\tstring public name = \"SlavaUkr...\n      JUMP \t\t\tstring public name = \"SlavaUkr...\n    tag 67\t\t\tstring public name = \"SlavaUkr...\n      JUMPDEST \t\t\tstring public name = \"SlavaUkr...\n      DUP3 \t\t\tstring public name = \"SlavaUkr...\n      ADD \t\t\tstring public name = \"SlavaUkr...\n      SWAP2 \t\t\tstring public name = \"SlavaUkr...\n      SWAP1 \t\t\tstring public name = \"SlavaUkr...\n      PUSH 0\t\t\tstring public name = \"SlavaUkr...\n      MSTORE \t\t\tstring public name = \"SlavaUkr...\n      PUSH 20\t\t\tstring public name = \"SlavaUkr...\n      PUSH 0\t\t\tstring public name = \"SlavaUkr...\n      KECCAK256 \t\t\tstring public name = \"SlavaUkr...\n      SWAP1 \t\t\tstring public name = \"SlavaUkr...\n    tag 68\t\t\tstring public name = \"SlavaUkr...\n      JUMPDEST \t\t\tstring public name = \"SlavaUkr...\n      DUP2 \t\t\tstring public name = \"SlavaUkr...\n      SLOAD \t\t\tstring public name = \"SlavaUkr...\n      DUP2 \t\t\tstring public name = \"SlavaUkr...\n      MSTORE \t\t\tstring public name = \"SlavaUkr...\n      SWAP1 \t\t\tstring public name = \"SlavaUkr...\n      PUSH 1\t\t\tstring public name = \"SlavaUkr...\n      ADD \t\t\tstring public name = \"SlavaUkr...\n      SWAP1 \t\t\tstring public name = \"SlavaUkr...\n      PUSH 20\t\t\tstring public name = \"SlavaUkr...\n      ADD \t\t\tstring public name = \"SlavaUkr...\n      DUP1 \t\t\tstring public name = \"SlavaUkr...\n      DUP4 \t\t\tstring public name = \"SlavaUkr...\n      GT \t\t\tstring public name = \"SlavaUkr...\n      PUSH [tag] 68\t\t\tstring public name = \"SlavaUkr...\n      JUMPI \t\t\tstring public name = \"SlavaUkr...\n      DUP3 \t\t\tstring public name = \"SlavaUkr...\n      SWAP1 \t\t\tstring public name = \"SlavaUkr...\n      SUB \t\t\tstring public name = \"SlavaUkr...\n      PUSH 1F\t\t\tstring public name = \"SlavaUkr...\n      AND \t\t\tstring public name = \"SlavaUkr...\n      DUP3 \t\t\tstring public name = \"SlavaUkr...\n      ADD \t\t\tstring public name = \"SlavaUkr...\n      SWAP2 \t\t\tstring public name = \"SlavaUkr...\n    tag 66\t\t\tstring public name = \"SlavaUkr...\n      JUMPDEST \t\t\tstring public name = \"SlavaUkr...\n      POP \t\t\tstring public name = \"SlavaUkr...\n      POP \t\t\tstring public name = \"SlavaUkr...\n      POP \t\t\tstring public name = \"SlavaUkr...\n      POP \t\t\tstring public name = \"SlavaUkr...\n      POP \t\t\tstring public name = \"SlavaUkr...\n      DUP2 \t\t\tstring public name = \"SlavaUkr...\n      JUMP [out]\t\t\tstring public name = \"SlavaUkr...\n    tag 26\t\t\tprove(address spender, uint256...\n      JUMPDEST \t\t\tprove(address spender, uint256...\n      CALLER \t\t\t[spender] \n      PUSH 0\t\t\t    \n      DUP2 \t\t\tsg.sender][spender] =\n      DUP2 \t\t\tsg.sender][spender] =\n      MSTORE \t\t\tsg.sender][spender] =\n      PUSH 5\t\t\tsg.sender\n      PUSH 20\t\t\tsg.sender][spender] =\n      SWAP1 \t\t\tsg.sender][spender] =\n      DUP2 \t\t\tsg.sender][spender] =\n      MSTORE \t\t\tsg.sender][spender] =\n      PUSH 40\t\t\tsg.sender][spender] =\n      DUP1 \t\t\tsg.sender][spender] =\n      DUP4 \t\t\tsg.sender][spender] =\n      KECCAK256 \t\t\tsg.sender][spender] =\n      PUSH 1\t\t\t\n      PUSH 1\t\t\t\n      PUSH A0\t\t\t\n      SHL \t\t\t\n      SUB \t\t\t\n      DUP8 \t\t\tsg.sender][spender] = amount;\\...\n      AND \t\t\tsg.sender][spender] = amount;\\...\n      DUP1 \t\t\tsg.sender][spender] = amount;\\...\n      DUP6 \t\t\tsg.sender][spender] = amount;\\...\n      MSTORE \t\t\tsg.sender][spender] = amount;\\...\n      SWAP1 \t\t\tsg.sender][spender] = amount;\\...\n      DUP4 \t\t\tsg.sender][spender] = amount;\\...\n      MSTORE \t\t\tsg.sender][spender] = amount;\\...\n      DUP2 \t\t\tsg.sender][spender] = amount;\\...\n      DUP5 \t\t\tsg.sender][spender] = amount;\\...\n      KECCAK256 \t\t\tsg.sender][spender] = amount;\\...\n      DUP7 \t\t\tsg.sender][spender] = amount;\\...\n      SWAP1 \t\t\tsg.sender][spender] = amount;\\...\n      SSTORE \t\t\tsg.sender][spender] = amount;\\...\n      DUP2 \t\t\tg.sender, spender, amount);\\n ...\n      MLOAD \t\t\tg.sender, spender, amount);\\n ...\n      DUP7 \t\t\tg.sender, spender, amount);\\n ...\n      DUP2 \t\t\tg.sender, spender, amount);\\n ...\n      MSTORE \t\t\tg.sender, spender, amount);\\n ...\n      SWAP2 \t\t\tg.sender, spender, amount);\\n ...\n      MLOAD \t\t\tg.sender, spender, amount);\\n ...\n      SWAP4 \t\t\t    \n      SWAP5 \t\t\t    \n      SWAP1 \t\t\tsg.sender][spender] = amount;\\...\n      SWAP4 \t\t\tsg.sender][spender] = amount;\\...\n      SWAP1 \t\t\t[spender] \n      SWAP3 \t\t\t[spender] \n      PUSH 8C5BE1E5EBEC7D5BD14F71427D1E84F3DD0314C0F7B2291E5B200AC8C7C3B925\t\t\tg.sender, spender, amount);\\n ...\n      SWAP3 \t\t\tg.sender, spender, amount);\\n ...\n      DUP3 \t\t\tg.sender, spender, amount);\\n ...\n      SWAP1 \t\t\tg.sender, spender, amount);\\n ...\n      SUB \t\t\tg.sender, spender, amount);\\n ...\n      ADD \t\t\tg.sender, spender, amount);\\n ...\n      SWAP1 \t\t\tg.sender, spender, amount);\\n ...\n      LOG3 \t\t\tg.sender, spender, amount);\\n ...\n      POP \t\t\t\n      PUSH 1\t\t\t\\n\\n  \n      SWAP3 \t\t\tprove(address spender, uint256...\n      SWAP2 \t\t\tprove(address spender, uint256...\n      POP \t\t\tprove(address spender, uint256...\n      POP \t\t\tprove(address spender, uint256...\n      JUMP [out]\t\t\tprove(address spender, uint256...\n    tag 28\t\t\t) public view returns (string ...\n      JUMPDEST \t\t\t) public view returns (string ...\n      PUSH 1\t\t\tfuncti\n      DUP1 \t\t\t}\\n\\n    functi\n      SLOAD \t\t\t}\\n\\n    functi\n      PUSH 40\t\t\t}\\n\\n    functi\n      DUP1 \t\t\t}\\n\\n    functi\n      MLOAD \t\t\t}\\n\\n    functi\n      PUSH 20\t\t\t}\\n\\n    functi\n      PUSH 1F\t\t\t}\\n\\n    functi\n      PUSH 2\t\t\t}\\n\\n    functi\n      PUSH 0\t\t\t\n      NOT \t\t\t\n      PUSH 100\t\t\t}\\n\\n    functi\n      DUP8 \t\t\t}\\n\\n    functi\n      DUP10 \t\t\t}\\n\\n    functi\n      AND \t\t\t}\\n\\n    functi\n      ISZERO \t\t\t}\\n\\n    functi\n      MUL \t\t\t}\\n\\n    functi\n      ADD \t\t\t}\\n\\n    functi\n      SWAP1 \t\t\t}\\n\\n    functi\n      SWAP6 \t\t\t}\\n\\n    functi\n      AND \t\t\t}\\n\\n    functi\n      SWAP5 \t\t\t}\\n\\n    functi\n      SWAP1 \t\t\t}\\n\\n    functi\n      SWAP5 \t\t\t}\\n\\n    functi\n      DIV \t\t\t}\\n\\n    functi\n      SWAP4 \t\t\t}\\n\\n    functi\n      DUP5 \t\t\t}\\n\\n    functi\n      ADD \t\t\t}\\n\\n    functi\n      DUP2 \t\t\t}\\n\\n    functi\n      SWAP1 \t\t\t}\\n\\n    functi\n      DIV \t\t\t}\\n\\n    functi\n      DUP2 \t\t\t}\\n\\n    functi\n      MUL \t\t\t}\\n\\n    functi\n      DUP3 \t\t\t}\\n\\n    functi\n      ADD \t\t\t}\\n\\n    functi\n      DUP2 \t\t\t}\\n\\n    functi\n      ADD \t\t\t}\\n\\n    functi\n      SWAP1 \t\t\t}\\n\\n    functi\n      SWAP3 \t\t\t}\\n\\n    functi\n      MSTORE \t\t\t}\\n\\n    functi\n      DUP3 \t\t\t}\\n\\n    functi\n      DUP2 \t\t\t}\\n\\n    functi\n      MSTORE \t\t\t}\\n\\n    functi\n      PUSH 60\t\t\t      return \n      SWAP4 \t\t\t      return \n      SWAP1 \t\t\t}\\n\\n    functi\n      SWAP3 \t\t\t}\\n\\n    functi\n      SWAP1 \t\t\tfuncti\n      SWAP2 \t\t\tfuncti\n      DUP4 \t\t\t}\\n\\n    functi\n      ADD \t\t\t}\\n\\n    functi\n      DUP3 \t\t\tfuncti\n      DUP3 \t\t\t}\\n\\n    functi\n      DUP1 \t\t\t}\\n\\n    functi\n      ISZERO \t\t\t}\\n\\n    functi\n      PUSH [tag] 71\t\t\t}\\n\\n    functi\n      JUMPI \t\t\t}\\n\\n    functi\n      DUP1 \t\t\t}\\n\\n    functi\n      PUSH 1F\t\t\t}\\n\\n    functi\n      LT \t\t\t}\\n\\n    functi\n      PUSH [tag] 72\t\t\t}\\n\\n    functi\n      JUMPI \t\t\t}\\n\\n    functi\n      PUSH 100\t\t\t}\\n\\n    functi\n      DUP1 \t\t\t}\\n\\n    functi\n      DUP4 \t\t\t}\\n\\n    functi\n      SLOAD \t\t\t}\\n\\n    functi\n      DIV \t\t\t}\\n\\n    functi\n      MUL \t\t\t}\\n\\n    functi\n      DUP4 \t\t\t}\\n\\n    functi\n      MSTORE \t\t\t}\\n\\n    functi\n      SWAP2 \t\t\t}\\n\\n    functi\n      PUSH 20\t\t\t}\\n\\n    functi\n      ADD \t\t\t}\\n\\n    functi\n      SWAP2 \t\t\t}\\n\\n    functi\n      PUSH [tag] 71\t\t\t}\\n\\n    functi\n      JUMP \t\t\t}\\n\\n    functi\n    tag 72\t\t\t}\\n\\n    functi\n      JUMPDEST \t\t\t}\\n\\n    functi\n      DUP3 \t\t\t}\\n\\n    functi\n      ADD \t\t\t}\\n\\n    functi\n      SWAP2 \t\t\t}\\n\\n    functi\n      SWAP1 \t\t\t}\\n\\n    functi\n      PUSH 0\t\t\t}\\n\\n    functi\n      MSTORE \t\t\t}\\n\\n    functi\n      PUSH 20\t\t\t}\\n\\n    functi\n      PUSH 0\t\t\t}\\n\\n    functi\n      KECCAK256 \t\t\t}\\n\\n    functi\n      SWAP1 \t\t\t}\\n\\n    functi\n    tag 73\t\t\t}\\n\\n    functi\n      JUMPDEST \t\t\t}\\n\\n    functi\n      DUP2 \t\t\t}\\n\\n    functi\n      SLOAD \t\t\t}\\n\\n    functi\n      DUP2 \t\t\t}\\n\\n    functi\n      MSTORE \t\t\t}\\n\\n    functi\n      SWAP1 \t\t\t}\\n\\n    functi\n      PUSH 1\t\t\t}\\n\\n    functi\n      ADD \t\t\t}\\n\\n    functi\n      SWAP1 \t\t\t}\\n\\n    functi\n      PUSH 20\t\t\t}\\n\\n    functi\n      ADD \t\t\t}\\n\\n    functi\n      DUP1 \t\t\t}\\n\\n    functi\n      DUP4 \t\t\t}\\n\\n    functi\n      GT \t\t\t}\\n\\n    functi\n      PUSH [tag] 73\t\t\t}\\n\\n    functi\n      JUMPI \t\t\t}\\n\\n    functi\n      DUP3 \t\t\t}\\n\\n    functi\n      SWAP1 \t\t\t}\\n\\n    functi\n      SUB \t\t\t}\\n\\n    functi\n      PUSH 1F\t\t\t}\\n\\n    functi\n      AND \t\t\t}\\n\\n    functi\n      DUP3 \t\t\t}\\n\\n    functi\n      ADD \t\t\t}\\n\\n    functi\n      SWAP2 \t\t\t}\\n\\n    functi\n    tag 71\t\t\t}\\n\\n    functi\n      JUMPDEST \t\t\t}\\n\\n    functi\n      POP \t\t\t}\\n\\n    functi\n      POP \t\t\t}\\n\\n    functi\n      POP \t\t\t}\\n\\n    functi\n      POP \t\t\t}\\n\\n    functi\n      POP \t\t\t}\\n\\n    functi\n      SWAP1 \t\t\t}\\n\\n    functi\n      POP \t\t\t}\\n\\n    functi\n      SWAP1 \t\t\t) public view returns (string ...\n      JUMP [out]\t\t\t) public view returns (string ...\n    tag 34\t\t\tpublic view returns (string me...\n      JUMPDEST \t\t\tpublic view returns (string me...\n      PUSH 0\t\t\tncti\n      DUP1 \t\t\t\\n    functi\n      SLOAD \t\t\t\\n    functi\n      PUSH 40\t\t\t\\n    functi\n      DUP1 \t\t\t\\n    functi\n      MLOAD \t\t\t\\n    functi\n      PUSH 20\t\t\t\\n    functi\n      PUSH 1F\t\t\t\\n    functi\n      PUSH 2\t\t\t\\n    functi\n      PUSH 0\t\t\t\n      NOT \t\t\t\n      PUSH 100\t\t\t\\n    functi\n      PUSH 1\t\t\t\\n    functi\n      DUP9 \t\t\t\\n    functi\n      AND \t\t\t\\n    functi\n      ISZERO \t\t\t\\n    functi\n      MUL \t\t\t\\n    functi\n      ADD \t\t\t\\n    functi\n      SWAP1 \t\t\t\\n    functi\n      SWAP6 \t\t\t\\n    functi\n      AND \t\t\t\\n    functi\n      SWAP5 \t\t\t\\n    functi\n      SWAP1 \t\t\t\\n    functi\n      SWAP5 \t\t\t\\n    functi\n      DIV \t\t\t\\n    functi\n      SWAP4 \t\t\t\\n    functi\n      DUP5 \t\t\t\\n    functi\n      ADD \t\t\t\\n    functi\n      DUP2 \t\t\t\\n    functi\n      SWAP1 \t\t\t\\n    functi\n      DIV \t\t\t\\n    functi\n      DUP2 \t\t\t\\n    functi\n      MUL \t\t\t\\n    functi\n      DUP3 \t\t\t\\n    functi\n      ADD \t\t\t\\n    functi\n      DUP2 \t\t\t\\n    functi\n      ADD \t\t\t\\n    functi\n      SWAP1 \t\t\t\\n    functi\n      SWAP3 \t\t\t\\n    functi\n      MSTORE \t\t\t\\n    functi\n      DUP3 \t\t\t\\n    functi\n      DUP2 \t\t\t\\n    functi\n      MSTORE \t\t\t\\n    functi\n      PUSH 60\t\t\t      return \n      SWAP4 \t\t\t      return \n      SWAP1 \t\t\t\\n    functi\n      SWAP3 \t\t\t\\n    functi\n      SWAP1 \t\t\tncti\n      SWAP2 \t\t\tncti\n      DUP4 \t\t\t\\n    functi\n      ADD \t\t\t\\n    functi\n      DUP3 \t\t\tncti\n      DUP3 \t\t\t\\n    functi\n      DUP1 \t\t\t\\n    functi\n      ISZERO \t\t\t\\n    functi\n      PUSH [tag] 71\t\t\t\\n    functi\n      JUMPI \t\t\t\\n    functi\n      DUP1 \t\t\t\\n    functi\n      PUSH 1F\t\t\t\\n    functi\n      LT \t\t\t\\n    functi\n      PUSH [tag] 72\t\t\t\\n    functi\n      JUMPI \t\t\t\\n    functi\n      PUSH 100\t\t\t\\n    functi\n      DUP1 \t\t\t\\n    functi\n      DUP4 \t\t\t\\n    functi\n      SLOAD \t\t\t\\n    functi\n      DIV \t\t\t\\n    functi\n      MUL \t\t\t\\n    functi\n      DUP4 \t\t\t\\n    functi\n      MSTORE \t\t\t\\n    functi\n      SWAP2 \t\t\t\\n    functi\n      PUSH 20\t\t\t\\n    functi\n      ADD \t\t\t\\n    functi\n      SWAP2 \t\t\t\\n    functi\n      PUSH [tag] 71\t\t\t\\n    functi\n      JUMP \t\t\t\\n    functi\n    tag 40\t\t\tint256 public totalSupply;\n      JUMPDEST \t\t\tint256 public totalSupply;\n      PUSH 3\t\t\tint256 public totalSupply;\n      SLOAD \t\t\tint256 public totalSupply;\n      DUP2 \t\t\tint256 public totalSupply;\n      JUMP [out]\t\t\tint256 public totalSupply;\n    tag 43\t\t\tsferFrom(address sender, addre...\n      JUMPDEST \t\t\tsferFrom(address sender, addre...\n      PUSH 1\t\t\t\n      PUSH 1\t\t\t\n      PUSH A0\t\t\t\n      SHL \t\t\t\n      SUB \t\t\t\n      DUP4 \t\t\tder] >= amount, \"\n      AND \t\t\tder] >= amount, \"\n      PUSH 0\t\t\t   r\n      SWAP1 \t\t\tder] >= amount, \"\n      DUP2 \t\t\tder] >= amount, \"\n      MSTORE \t\t\tder] >= amount, \"\n      PUSH 4\t\t\tder] >= a\n      PUSH 20\t\t\tder] >= amount, \"\n      MSTORE \t\t\tder] >= amount, \"\n      PUSH 40\t\t\tder] >= amount, \"\n      DUP2 \t\t\tder] >= amount, \"\n      KECCAK256 \t\t\tder] >= amount, \"\n      SLOAD \t\t\tder] >= amount, \"\n      DUP3 \t\t\tder] >= amount, \"Saldo insu\n      GT \t\t\t\n      ISZERO \t\t\tder] >= amount, \"Saldo insu\n      PUSH [tag] 79\t\t\tceOf[sender] >= amount, \"Saldo...\n      JUMPI \t\t\tceOf[sender] >= amount, \"Saldo...\n      PUSH 40\t\t\tceOf[sender] >= amount, \"Saldo...\n      DUP1 \t\t\tceOf[sender] >= amount, \"Saldo...\n      MLOAD \t\t\tceOf[sender] >= amount, \"Saldo...\n      PUSH 1\t\t\t\n      PUSH E5\t\t\t\n      SHL \t\t\t\n      PUSH 461BCD\t\t\t\n      MUL \t\t\t\n      DUP2 \t\t\tceOf[sender] >= amount, \"Saldo...\n      MSTORE \t\t\tceOf[sender] >= amount, \"Saldo...\n      PUSH 20\t\t\tceOf[sender] >= amount, \"Saldo...\n      PUSH 4\t\t\tceOf[sender] >= amount, \"Saldo...\n      DUP3 \t\t\tceOf[sender] >= amount, \"Saldo...\n      ADD \t\t\tceOf[sender] >= amount, \"Saldo...\n      MSTORE \t\t\tceOf[sender] >= amount, \"Saldo...\n      PUSH 12\t\t\tceOf[sender] >= amount, \"Saldo...\n      PUSH 24\t\t\tceOf[sender] >= amount, \"Saldo...\n      DUP3 \t\t\tceOf[sender] >= amount, \"Saldo...\n      ADD \t\t\tceOf[sender] >= amount, \"Saldo...\n      MSTORE \t\t\tceOf[sender] >= amount, \"Saldo...\n      PUSH 1\t\t\t\n      PUSH 70\t\t\t\n      SHL \t\t\t\n      PUSH 53616C646F20696E737566696369656E7465\t\t\t\n      MUL \t\t\t\n      PUSH 44\t\t\tceOf[sender] >= amount, \"Saldo...\n      DUP3 \t\t\tceOf[sender] >= amount, \"Saldo...\n      ADD \t\t\tceOf[sender] >= amount, \"Saldo...\n      MSTORE \t\t\tceOf[sender] >= amount, \"Saldo...\n      SWAP1 \t\t\tceOf[sender] >= amount, \"Saldo...\n      MLOAD \t\t\tceOf[sender] >= amount, \"Saldo...\n      SWAP1 \t\t\tceOf[sender] >= amount, \"Saldo...\n      DUP2 \t\t\tceOf[sender] >= amount, \"Saldo...\n      SWAP1 \t\t\tceOf[sender] >= amount, \"Saldo...\n      SUB \t\t\tceOf[sender] >= amount, \"Saldo...\n      PUSH 64\t\t\tceOf[sender] >= amount, \"Saldo...\n      ADD \t\t\tceOf[sender] >= amount, \"Saldo...\n      SWAP1 \t\t\tceOf[sender] >= amount, \"Saldo...\n      REVERT \t\t\tceOf[sender] >= amount, \"Saldo...\n    tag 79\t\t\tceOf[sender] >= amount, \"Saldo...\n      JUMPDEST \t\t\tceOf[sender] >= amount, \"Saldo...\n      PUSH 1\t\t\t\n      PUSH 1\t\t\t\n      PUSH A0\t\t\t\n      SHL \t\t\t\n      SUB \t\t\t\n      DUP5 \t\t\tder][msg.sender] \n      AND \t\t\tder][msg.sender] \n      PUSH 0\t\t\tder][msg.sender] \n      SWAP1 \t\t\tder][msg.sender] \n      DUP2 \t\t\tder][msg.sender] \n      MSTORE \t\t\tder][msg.sender] \n      PUSH 5\t\t\tder][msg.\n      PUSH 20\t\t\tder][msg.sender] \n      SWAP1 \t\t\tder][msg.sender] \n      DUP2 \t\t\tder][msg.sender] \n      MSTORE \t\t\tder][msg.sender] \n      PUSH 40\t\t\tder][msg.sender] \n      DUP1 \t\t\tder][msg.sender] \n      DUP4 \t\t\tder][msg.sender] \n      KECCAK256 \t\t\tder][msg.sender] \n      CALLER \t\t\t= amount, \n      DUP5 \t\t\tder][msg.sender] >= amount, \"\n      MSTORE \t\t\tder][msg.sender] >= amount, \"\n      SWAP1 \t\t\tder][msg.sender] >= amount, \"\n      SWAP2 \t\t\tder][msg.sender] >= amount, \"\n      MSTORE \t\t\tder][msg.sender] >= amount, \"\n      SWAP1 \t\t\tder][msg.sender] >= amount, \"\n      KECCAK256 \t\t\tder][msg.sender] >= amount, \"\n      SLOAD \t\t\tder][msg.sender] >= amount, \"\n      DUP3 \t\t\tder][msg.sender] >= amount, \"P...\n      GT \t\t\t\n      ISZERO \t\t\tder][msg.sender] >= amount, \"P...\n      PUSH [tag] 80\t\t\tance[sender][msg.sender] >= am...\n      JUMPI \t\t\tance[sender][msg.sender] >= am...\n      PUSH 40\t\t\tance[sender][msg.sender] >= am...\n      DUP1 \t\t\tance[sender][msg.sender] >= am...\n      MLOAD \t\t\tance[sender][msg.sender] >= am...\n      PUSH 1\t\t\t\n      PUSH E5\t\t\t\n      SHL \t\t\t\n      PUSH 461BCD\t\t\t\n      MUL \t\t\t\n      DUP2 \t\t\tance[sender][msg.sender] >= am...\n      MSTORE \t\t\tance[sender][msg.sender] >= am...\n      PUSH 20\t\t\tance[sender][msg.sender] >= am...\n      PUSH 4\t\t\tance[sender][msg.sender] >= am...\n      DUP3 \t\t\tance[sender][msg.sender] >= am...\n      ADD \t\t\tance[sender][msg.sender] >= am...\n      MSTORE \t\t\tance[sender][msg.sender] >= am...\n      PUSH 17\t\t\tance[sender][msg.sender] >= am...\n      PUSH 24\t\t\tance[sender][msg.sender] >= am...\n      DUP3 \t\t\tance[sender][msg.sender] >= am...\n      ADD \t\t\tance[sender][msg.sender] >= am...\n      MSTORE \t\t\tance[sender][msg.sender] >= am...\n      PUSH 5065726D697373C3A36F20696E737566696369656E7465000000000000000000\t\t\tance[sender][msg.sender] >= am...\n      PUSH 44\t\t\tance[sender][msg.sender] >= am...\n      DUP3 \t\t\tance[sender][msg.sender] >= am...\n      ADD \t\t\tance[sender][msg.sender] >= am...\n      MSTORE \t\t\tance[sender][msg.sender] >= am...\n      SWAP1 \t\t\tance[sender][msg.sender] >= am...\n      MLOAD \t\t\tance[sender][msg.sender] >= am...\n      SWAP1 \t\t\tance[sender][msg.sender] >= am...\n      DUP2 \t\t\tance[sender][msg.sender] >= am...\n      SWAP1 \t\t\tance[sender][msg.sender] >= am...\n      SUB \t\t\tance[sender][msg.sender] >= am...\n      PUSH 64\t\t\tance[sender][msg.sender] >= am...\n      ADD \t\t\tance[sender][msg.sender] >= am...\n      SWAP1 \t\t\tance[sender][msg.sender] >= am...\n      REVERT \t\t\tance[sender][msg.sender] >= am...\n    tag 80\t\t\tance[sender][msg.sender] >= am...\n      JUMPDEST \t\t\tance[sender][msg.sender] >= am...\n      PUSH 1\t\t\t\n      PUSH 1\t\t\t\n      PUSH A0\t\t\t\n      SHL \t\t\t\n      SUB \t\t\t\n      DUP1 \t\t\ter] -= amount;\\n  \n      DUP6 \t\t\ter] -= amount;\\n  \n      AND \t\t\ter] -= amount;\\n  \n      PUSH 0\t\t\ter] -= amount;\\n  \n      DUP2 \t\t\ter] -= amount;\\n  \n      DUP2 \t\t\ter] -= amount;\\n  \n      MSTORE \t\t\ter] -= amount;\\n  \n      PUSH 4\t\t\ter] -= am\n      PUSH 20\t\t\ter] -= amount;\\n  \n      SWAP1 \t\t\ter] -= amount;\\n  \n      DUP2 \t\t\ter] -= amount;\\n  \n      MSTORE \t\t\ter] -= amount;\\n  \n      PUSH 40\t\t\ter] -= amount;\\n  \n      DUP1 \t\t\ter] -= amount;\\n  \n      DUP4 \t\t\ter] -= amount;\\n  \n      KECCAK256 \t\t\ter] -= amount;\\n  \n      DUP1 \t\t\ter] -= amount;\\n        bala\n      SLOAD \t\t\ter] -= amount;\\n        bala\n      DUP9 \t\t\ter] -= amount;\\n        bala\n      SWAP1 \t\t\ter] -= amount;\\n        bala\n      SUB \t\t\ter] -= amount;\\n        bala\n      SWAP1 \t\t\ter] -= amount;\\n        bala\n      SSTORE \t\t\ter] -= amount;\\n        bala\n      SWAP4 \t\t\tpient] += amount;\\n  \n      DUP8 \t\t\tpient] += amount;\\n  \n      AND \t\t\tpient] += amount;\\n  \n      DUP1 \t\t\tpient] += amount;\\n  \n      DUP4 \t\t\tpient] += amount;\\n  \n      MSTORE \t\t\tpient] += amount;\\n  \n      DUP5 \t\t\tpient] += amount;\\n  \n      DUP4 \t\t\tpient] += amount;\\n  \n      KECCAK256 \t\t\tpient] += amount;\\n  \n      DUP1 \t\t\tpient] += amount;\\n        all...\n      SLOAD \t\t\tpient] += amount;\\n        all...\n      DUP9 \t\t\tpient] += amount;\\n        all...\n      ADD \t\t\tpient] += amount;\\n        all...\n      SWAP1 \t\t\tpient] += amount;\\n        all...\n      SSTORE \t\t\tpient] += amount;\\n        all...\n      DUP4 \t\t\ter][msg.sender] -\n      DUP4 \t\t\ter][msg.sender] -\n      MSTORE \t\t\ter][msg.sender] -\n      PUSH 5\t\t\ter][msg.s\n      DUP3 \t\t\ter][msg.sender] -\n      MSTORE \t\t\ter][msg.sender] -\n      DUP5 \t\t\ter][msg.sender] -\n      DUP4 \t\t\ter][msg.sender] -\n      KECCAK256 \t\t\ter][msg.sender] -\n      CALLER \t\t\t amount;\\n \n      DUP5 \t\t\ter][msg.sender] -= amount;\\n  \n      MSTORE \t\t\ter][msg.sender] -= amount;\\n  \n      DUP3 \t\t\ter][msg.sender] -= amount;\\n  \n      MSTORE \t\t\ter][msg.sender] -= amount;\\n  \n      SWAP2 \t\t\ter][msg.sender] -= amount;\\n  \n      DUP5 \t\t\ter][msg.sender] -= amount;\\n  \n      SWAP1 \t\t\ter][msg.sender] -= amount;\\n  \n      KECCAK256 \t\t\ter][msg.sender] -= amount;\\n  \n      DUP1 \t\t\ter][msg.sender] -= amount;\\n  ...\n      SLOAD \t\t\ter][msg.sender] -= amount;\\n  ...\n      DUP8 \t\t\ter][msg.sender] -= amount;\\n  ...\n      SWAP1 \t\t\ter][msg.sender] -= amount;\\n  ...\n      SUB \t\t\ter][msg.sender] -= amount;\\n  ...\n      SWAP1 \t\t\ter][msg.sender] -= amount;\\n  ...\n      SSTORE \t\t\ter][msg.sender] -= amount;\\n  ...\n      DUP4 \t\t\tr, recipient, amount);\\n      ...\n      MLOAD \t\t\tr, recipient, amount);\\n      ...\n      DUP7 \t\t\tr, recipient, amount);\\n      ...\n      DUP2 \t\t\tr, recipient, amount);\\n      ...\n      MSTORE \t\t\tr, recipient, amount);\\n      ...\n      SWAP4 \t\t\tr, recipient, amount);\\n      ...\n      MLOAD \t\t\tr, recipient, amount);\\n      ...\n      SWAP2 \t\t\tpient] += amount;\\n  \n      SWAP4 \t\t\tpient] += amount;\\n  \n      PUSH DDF252AD1BE2C89B69C2B068FC378DAA952BA7F163C4A11628F55A4DF523B3EF\t\t\tr, recipient, amount);\\n      ...\n      SWAP3 \t\t\tr, recipient, amount);\\n      ...\n      SWAP1 \t\t\tr, recipient, amount);\\n      ...\n      DUP2 \t\t\tr, recipient, amount);\\n      ...\n      SWAP1 \t\t\tr, recipient, amount);\\n      ...\n      SUB \t\t\tr, recipient, amount);\\n      ...\n      SWAP1 \t\t\tr, recipient, amount);\\n      ...\n      SWAP2 \t\t\tr, recipient, amount);\\n      ...\n      ADD \t\t\tr, recipient, amount);\\n      ...\n      SWAP1 \t\t\tr, recipient, amount);\\n      ...\n      LOG3 \t\t\tr, recipient, amount);\\n      ...\n      POP \t\t\t\n      PUSH 1\t\t\t   /\n      SWAP4 \t\t\tsferFrom(address sender, addre...\n      SWAP3 \t\t\tsferFrom(address sender, addre...\n      POP \t\t\tsferFrom(address sender, addre...\n      POP \t\t\tsferFrom(address sender, addre...\n      POP \t\t\tsferFrom(address sender, addre...\n      JUMP [out]\t\t\tsferFrom(address sender, addre...\n    tag 45\t\t\tint8 public decimals = 18;\n      JUMPDEST \t\t\tint8 public decimals = 18;\n      PUSH 2\t\t\tint8 public decimals = 18;\n      SLOAD \t\t\tint8 public decimals = 18;\n      PUSH FF\t\t\tint8 public decimals = 18;\n      AND \t\t\tint8 public decimals = 18;\n      DUP2 \t\t\tint8 public decimals = 18;\n      JUMP [out]\t\t\tint8 public decimals = 18;\n    tag 48\t\t\tnt256 amount) public returns (...\n      JUMPDEST \t\t\tnt256 amount) public returns (...\n      CALLER \t\t\tmount, \"Sa\n      PUSH 0\t\t\trequ\n      SWAP1 \t\t\tnder] >= amount, \"Sal\n      DUP2 \t\t\tnder] >= amount, \"Sal\n      MSTORE \t\t\tnder] >= amount, \"Sal\n      PUSH 4\t\t\tnder] >= \n      PUSH 20\t\t\tnder] >= amount, \"Sal\n      MSTORE \t\t\tnder] >= amount, \"Sal\n      PUSH 40\t\t\tnder] >= amount, \"Sal\n      DUP2 \t\t\tnder] >= amount, \"Sal\n      KECCAK256 \t\t\tnder] >= amount, \"Sal\n      SLOAD \t\t\tnder] >= amount, \"Sal\n      DUP3 \t\t\tnder] >= amount, \"Saldo insufi...\n      GT \t\t\t\n      ISZERO \t\t\tnder] >= amount, \"Saldo insufi...\n      PUSH [tag] 82\t\t\tf[msg.sender] >= amount, \"Sald...\n      JUMPI \t\t\tf[msg.sender] >= amount, \"Sald...\n      PUSH 40\t\t\tf[msg.sender] >= amount, \"Sald...\n      DUP1 \t\t\tf[msg.sender] >= amount, \"Sald...\n      MLOAD \t\t\tf[msg.sender] >= amount, \"Sald...\n      PUSH 1\t\t\t\n      PUSH E5\t\t\t\n      SHL \t\t\t\n      PUSH 461BCD\t\t\t\n      MUL \t\t\t\n      DUP2 \t\t\tf[msg.sender] >= amount, \"Sald...\n      MSTORE \t\t\tf[msg.sender] >= amount, \"Sald...\n      PUSH 20\t\t\tf[msg.sender] >= amount, \"Sald...\n      PUSH 4\t\t\tf[msg.sender] >= amount, \"Sald...\n      DUP3 \t\t\tf[msg.sender] >= amount, \"Sald...\n      ADD \t\t\tf[msg.sender] >= amount, \"Sald...\n      MSTORE \t\t\tf[msg.sender] >= amount, \"Sald...\n      PUSH 1F\t\t\tf[msg.sender] >= amount, \"Sald...\n      PUSH 24\t\t\tf[msg.sender] >= amount, \"Sald...\n      DUP3 \t\t\tf[msg.sender] >= amount, \"Sald...\n      ADD \t\t\tf[msg.sender] >= amount, \"Sald...\n      MSTORE \t\t\tf[msg.sender] >= amount, \"Sald...\n      PUSH 53616C646F20696E737566696369656E7465207061726120717565696D617200\t\t\tf[msg.sender] >= amount, \"Sald...\n      PUSH 44\t\t\tf[msg.sender] >= amount, \"Sald...\n      DUP3 \t\t\tf[msg.sender] >= amount, \"Sald...\n      ADD \t\t\tf[msg.sender] >= amount, \"Sald...\n      MSTORE \t\t\tf[msg.sender] >= amount, \"Sald...\n      SWAP1 \t\t\tf[msg.sender] >= amount, \"Sald...\n      MLOAD \t\t\tf[msg.sender] >= amount, \"Sald...\n      SWAP1 \t\t\tf[msg.sender] >= amount, \"Sald...\n      DUP2 \t\t\tf[msg.sender] >= amount, \"Sald...\n      SWAP1 \t\t\tf[msg.sender] >= amount, \"Sald...\n      SUB \t\t\tf[msg.sender] >= amount, \"Sald...\n      PUSH 64\t\t\tf[msg.sender] >= amount, \"Sald...\n      ADD \t\t\tf[msg.sender] >= amount, \"Sald...\n      SWAP1 \t\t\tf[msg.sender] >= amount, \"Sald...\n      REVERT \t\t\tf[msg.sender] >= amount, \"Sald...\n    tag 82\t\t\tf[msg.sender] >= amount, \"Sald...\n      JUMPDEST \t\t\tf[msg.sender] >= amount, \"Sald...\n      PUSH 3\t\t\tmount;\\n    \n      DUP1 \t\t\tmount;\\n        balanc\n      SLOAD \t\t\tmount;\\n        balanc\n      DUP4 \t\t\tmount;\\n        balanc\n      SWAP1 \t\t\tmount;\\n        balanc\n      SUB \t\t\tmount;\\n        balanc\n      SWAP1 \t\t\tmount;\\n        balanc\n      SSTORE \t\t\tmount;\\n        balanc\n      CALLER \t\t\tmount;\\n   \n      PUSH 0\t\t\tmount;\\n    \n      DUP2 \t\t\tnder] -= amount;\\n    \n      DUP2 \t\t\tnder] -= amount;\\n    \n      MSTORE \t\t\tnder] -= amount;\\n    \n      PUSH 4\t\t\tnder] -= \n      PUSH 20\t\t\tnder] -= amount;\\n    \n      SWAP1 \t\t\tnder] -= amount;\\n    \n      DUP2 \t\t\tnder] -= amount;\\n    \n      MSTORE \t\t\tnder] -= amount;\\n    \n      PUSH 40\t\t\tnder] -= amount;\\n    \n      DUP1 \t\t\tnder] -= amount;\\n    \n      DUP4 \t\t\tnder] -= amount;\\n    \n      KECCAK256 \t\t\tnder] -= amount;\\n    \n      DUP1 \t\t\tnder] -= amount;\\n        emit...\n      SLOAD \t\t\tnder] -= amount;\\n        emit...\n      DUP8 \t\t\tnder] -= amount;\\n        emit...\n      SWAP1 \t\t\tnder] -= amount;\\n        emit...\n      SUB \t\t\tnder] -= amount;\\n        emit...\n      SWAP1 \t\t\tnder] -= amount;\\n        emit...\n      SSTORE \t\t\tnder] -= amount;\\n        emit...\n      DUP1 \t\t\tder, address(0), amount); // E...\n      MLOAD \t\t\tder, address(0), amount); // E...\n      DUP7 \t\t\tder, address(0), amount); // E...\n      DUP2 \t\t\tder, address(0), amount); // E...\n      MSTORE \t\t\tder, address(0), amount); // E...\n      SWAP1 \t\t\tder, address(0), amount); // E...\n      MLOAD \t\t\tder, address(0), amount); // E...\n      SWAP3 \t\t\tmount;\\n    \n      SWAP4 \t\t\tmount;\\n    \n      SWAP3 \t\t\tmount;\\n   \n      PUSH DDF252AD1BE2C89B69C2B068FC378DAA952BA7F163C4A11628F55A4DF523B3EF\t\t\tder, address(0), amount); // E...\n      SWAP3 \t\t\tder, address(0), amount); // E...\n      SWAP2 \t\t\tder, address(0), amount); // E...\n      DUP2 \t\t\tder, address(0), amount); // E...\n      SWAP1 \t\t\tder, address(0), amount); // E...\n      SUB \t\t\tder, address(0), amount); // E...\n      SWAP1 \t\t\tder, address(0), amount); // E...\n      SWAP2 \t\t\tder, address(0), amount); // E...\n      ADD \t\t\tder, address(0), amount); // E...\n      SWAP1 \t\t\tder, address(0), amount); // E...\n      LOG3 \t\t\tder, address(0), amount); // E...\n      POP \t\t\t\n      PUSH 1\t\t\t // \n      SWAP2 \t\t\tnt256 amount) public returns (...\n      SWAP1 \t\t\tnt256 amount) public returns (...\n      POP \t\t\tnt256 amount) public returns (...\n      JUMP [out]\t\t\tnt256 amount) public returns (...\n    tag 51\t\t\tapping(address => uint256) pub...\n      JUMPDEST \t\t\tapping(address => uint256) pub...\n      PUSH 4\t\t\tapping(address => uint256) pub...\n      PUSH 20\t\t\tapping(address => uint256) pub...\n      MSTORE \t\t\tapping(address => uint256) pub...\n      PUSH 0\t\t\tapping(address => uint256) pub...\n      SWAP1 \t\t\tapping(address => uint256) pub...\n      DUP2 \t\t\tapping(address => uint256) pub...\n      MSTORE \t\t\tapping(address => uint256) pub...\n      PUSH 40\t\t\tapping(address => uint256) pub...\n      SWAP1 \t\t\tapping(address => uint256) pub...\n      KECCAK256 \t\t\tapping(address => uint256) pub...\n      SLOAD \t\t\tapping(address => uint256) pub...\n      DUP2 \t\t\tapping(address => uint256) pub...\n      JUMP [out]\t\t\tapping(address => uint256) pub...\n    tag 53\t\t\tstring public symbol = \"SUT\"\n      JUMPDEST \t\t\tstring public symbol = \"SUT\"\n      PUSH 1\t\t\tstring public symbol = \"SUT\"\n      DUP1 \t\t\tstring public symbol = \"SUT\"\n      SLOAD \t\t\tstring public symbol = \"SUT\"\n      PUSH 40\t\t\tstring public symbol = \"SUT\"\n      DUP1 \t\t\tstring public symbol = \"SUT\"\n      MLOAD \t\t\tstring public symbol = \"SUT\"\n      PUSH 20\t\t\tstring public symbol = \"SUT\"\n      PUSH 2\t\t\tstring public symbol = \"SUT\"\n      DUP5 \t\t\tstring public symbol = \"SUT\"\n      DUP7 \t\t\tstring public symbol = \"SUT\"\n      AND \t\t\tstring public symbol = \"SUT\"\n      ISZERO \t\t\tstring public symbol = \"SUT\"\n      PUSH 100\t\t\tstring public symbol = \"SUT\"\n      MUL \t\t\tstring public symbol = \"SUT\"\n      PUSH 0\t\t\t\n      NOT \t\t\t\n      ADD \t\t\tstring public symbol = \"SUT\"\n      SWAP1 \t\t\tstring public symbol = \"SUT\"\n      SWAP5 \t\t\tstring public symbol = \"SUT\"\n      AND \t\t\tstring public symbol = \"SUT\"\n      SWAP4 \t\t\tstring public symbol = \"SUT\"\n      SWAP1 \t\t\tstring public symbol = \"SUT\"\n      SWAP4 \t\t\tstring public symbol = \"SUT\"\n      DIV \t\t\tstring public symbol = \"SUT\"\n      PUSH 1F\t\t\tstring public symbol = \"SUT\"\n      DUP2 \t\t\tstring public symbol = \"SUT\"\n      ADD \t\t\tstring public symbol = \"SUT\"\n      DUP5 \t\t\tstring public symbol = \"SUT\"\n      SWAP1 \t\t\tstring public symbol = \"SUT\"\n      DIV \t\t\tstring public symbol = \"SUT\"\n      DUP5 \t\t\tstring public symbol = \"SUT\"\n      MUL \t\t\tstring public symbol = \"SUT\"\n      DUP3 \t\t\tstring public symbol = \"SUT\"\n      ADD \t\t\tstring public symbol = \"SUT\"\n      DUP5 \t\t\tstring public symbol = \"SUT\"\n      ADD \t\t\tstring public symbol = \"SUT\"\n      SWAP1 \t\t\tstring public symbol = \"SUT\"\n      SWAP3 \t\t\tstring public symbol = \"SUT\"\n      MSTORE \t\t\tstring public symbol = \"SUT\"\n      DUP2 \t\t\tstring public symbol = \"SUT\"\n      DUP2 \t\t\tstring public symbol = \"SUT\"\n      MSTORE \t\t\tstring public symbol = \"SUT\"\n      SWAP3 \t\t\tstring public symbol = \"SUT\"\n      SWAP2 \t\t\tstring public symbol = \"SUT\"\n      DUP4 \t\t\tstring public symbol = \"SUT\"\n      ADD \t\t\tstring public symbol = \"SUT\"\n      DUP3 \t\t\tstring public symbol = \"SUT\"\n      DUP3 \t\t\tstring public symbol = \"SUT\"\n      DUP1 \t\t\tstring public symbol = \"SUT\"\n      ISZERO \t\t\tstring public symbol = \"SUT\"\n      PUSH [tag] 66\t\t\tstring public symbol = \"SUT\"\n      JUMPI \t\t\tstring public symbol = \"SUT\"\n      DUP1 \t\t\tstring public symbol = \"SUT\"\n      PUSH 1F\t\t\tstring public symbol = \"SUT\"\n      LT \t\t\tstring public symbol = \"SUT\"\n      PUSH [tag] 67\t\t\tstring public symbol = \"SUT\"\n      JUMPI \t\t\tstring public symbol = \"SUT\"\n      PUSH 100\t\t\tstring public symbol = \"SUT\"\n      DUP1 \t\t\tstring public symbol = \"SUT\"\n      DUP4 \t\t\tstring public symbol = \"SUT\"\n      SLOAD \t\t\tstring public symbol = \"SUT\"\n      DIV \t\t\tstring public symbol = \"SUT\"\n      MUL \t\t\tstring public symbol = \"SUT\"\n      DUP4 \t\t\tstring public symbol = \"SUT\"\n      MSTORE \t\t\tstring public symbol = \"SUT\"\n      SWAP2 \t\t\tstring public symbol = \"SUT\"\n      PUSH 20\t\t\tstring public symbol = \"SUT\"\n      ADD \t\t\tstring public symbol = \"SUT\"\n      SWAP2 \t\t\tstring public symbol = \"SUT\"\n      PUSH [tag] 66\t\t\tstring public symbol = \"SUT\"\n      JUMP \t\t\tstring public symbol = \"SUT\"\n    tag 60\t\t\tn transfer(address recipient, ...\n      JUMPDEST \t\t\tn transfer(address recipient, ...\n      CALLER \t\t\tder] >= am\n      PUSH 0\t\t\t\\n   \n      SWAP1 \t\t\tOf[msg.sender] >= amo\n      DUP2 \t\t\tOf[msg.sender] >= amo\n      MSTORE \t\t\tOf[msg.sender] >= amo\n      PUSH 4\t\t\tOf[msg.se\n      PUSH 20\t\t\tOf[msg.sender] >= amo\n      MSTORE \t\t\tOf[msg.sender] >= amo\n      PUSH 40\t\t\tOf[msg.sender] >= amo\n      DUP2 \t\t\tOf[msg.sender] >= amo\n      KECCAK256 \t\t\tOf[msg.sender] >= amo\n      SLOAD \t\t\tOf[msg.sender] >= amo\n      DUP3 \t\t\tOf[msg.sender] >= amount, \"Sal...\n      GT \t\t\t\n      ISZERO \t\t\tOf[msg.sender] >= amount, \"Sal...\n      PUSH [tag] 87\t\t\t(balanceOf[msg.sender] >= amou...\n      JUMPI \t\t\t(balanceOf[msg.sender] >= amou...\n      PUSH 40\t\t\t(balanceOf[msg.sender] >= amou...\n      DUP1 \t\t\t(balanceOf[msg.sender] >= amou...\n      MLOAD \t\t\t(balanceOf[msg.sender] >= amou...\n      PUSH 1\t\t\t\n      PUSH E5\t\t\t\n      SHL \t\t\t\n      PUSH 461BCD\t\t\t\n      MUL \t\t\t\n      DUP2 \t\t\t(balanceOf[msg.sender] >= amou...\n      MSTORE \t\t\t(balanceOf[msg.sender] >= amou...\n      PUSH 20\t\t\t(balanceOf[msg.sender] >= amou...\n      PUSH 4\t\t\t(balanceOf[msg.sender] >= amou...\n      DUP3 \t\t\t(balanceOf[msg.sender] >= amou...\n      ADD \t\t\t(balanceOf[msg.sender] >= amou...\n      MSTORE \t\t\t(balanceOf[msg.sender] >= amou...\n      PUSH 12\t\t\t(balanceOf[msg.sender] >= amou...\n      PUSH 24\t\t\t(balanceOf[msg.sender] >= amou...\n      DUP3 \t\t\t(balanceOf[msg.sender] >= amou...\n      ADD \t\t\t(balanceOf[msg.sender] >= amou...\n      MSTORE \t\t\t(balanceOf[msg.sender] >= amou...\n      PUSH 1\t\t\t\n      PUSH 70\t\t\t\n      SHL \t\t\t\n      PUSH 53616C646F20696E737566696369656E7465\t\t\t\n      MUL \t\t\t\n      PUSH 44\t\t\t(balanceOf[msg.sender] >= amou...\n      DUP3 \t\t\t(balanceOf[msg.sender] >= amou...\n      ADD \t\t\t(balanceOf[msg.sender] >= amou...\n      MSTORE \t\t\t(balanceOf[msg.sender] >= amou...\n      SWAP1 \t\t\t(balanceOf[msg.sender] >= amou...\n      MLOAD \t\t\t(balanceOf[msg.sender] >= amou...\n      SWAP1 \t\t\t(balanceOf[msg.sender] >= amou...\n      DUP2 \t\t\t(balanceOf[msg.sender] >= amou...\n      SWAP1 \t\t\t(balanceOf[msg.sender] >= amou...\n      SUB \t\t\t(balanceOf[msg.sender] >= amou...\n      PUSH 64\t\t\t(balanceOf[msg.sender] >= amou...\n      ADD \t\t\t(balanceOf[msg.sender] >= amou...\n      SWAP1 \t\t\t(balanceOf[msg.sender] >= amou...\n      REVERT \t\t\t(balanceOf[msg.sender] >= amou...\n    tag 87\t\t\t(balanceOf[msg.sender] >= amou...\n      JUMPDEST \t\t\t(balanceOf[msg.sender] >= amou...\n      PUSH 1\t\t\t\n      PUSH 1\t\t\t\n      PUSH A0\t\t\t\n      SHL \t\t\t\n      SUB \t\t\t\n      DUP4 \t\t\tnt != address(0), \"Ende\n      AND \t\t\tnt != address(0), \"Ende\n      PUSH [tag] 88\t\t\t(recipient != address(0), \"End...\n      JUMPI \t\t\t(recipient != address(0), \"End...\n      PUSH 40\t\t\t(recipient != address(0), \"End...\n      DUP1 \t\t\t(recipient != address(0), \"End...\n      MLOAD \t\t\t(recipient != address(0), \"End...\n      PUSH 1\t\t\t\n      PUSH E5\t\t\t\n      SHL \t\t\t\n      PUSH 461BCD\t\t\t\n      MUL \t\t\t\n      DUP2 \t\t\t(recipient != address(0), \"End...\n      MSTORE \t\t\t(recipient != address(0), \"End...\n      PUSH 20\t\t\t(recipient != address(0), \"End...\n      PUSH 4\t\t\t(recipient != address(0), \"End...\n      DUP3 \t\t\t(recipient != address(0), \"End...\n      ADD \t\t\t(recipient != address(0), \"End...\n      MSTORE \t\t\t(recipient != address(0), \"End...\n      PUSH 13\t\t\t(recipient != address(0), \"End...\n      PUSH 24\t\t\t(recipient != address(0), \"End...\n      DUP3 \t\t\t(recipient != address(0), \"End...\n      ADD \t\t\t(recipient != address(0), \"End...\n      MSTORE \t\t\t(recipient != address(0), \"End...\n      PUSH 456E64657265C3A76F20696E76C3A16C69646F00000000000000000000000000\t\t\t(recipient != address(0), \"End...\n      PUSH 44\t\t\t(recipient != address(0), \"End...\n      DUP3 \t\t\t(recipient != address(0), \"End...\n      ADD \t\t\t(recipient != address(0), \"End...\n      MSTORE \t\t\t(recipient != address(0), \"End...\n      SWAP1 \t\t\t(recipient != address(0), \"End...\n      MLOAD \t\t\t(recipient != address(0), \"End...\n      SWAP1 \t\t\t(recipient != address(0), \"End...\n      DUP2 \t\t\t(recipient != address(0), \"End...\n      SWAP1 \t\t\t(recipient != address(0), \"End...\n      SUB \t\t\t(recipient != address(0), \"End...\n      PUSH 64\t\t\t(recipient != address(0), \"End...\n      ADD \t\t\t(recipient != address(0), \"End...\n      SWAP1 \t\t\t(recipient != address(0), \"End...\n      REVERT \t\t\t(recipient != address(0), \"End...\n    tag 88\t\t\t(recipient != address(0), \"End...\n      JUMPDEST \t\t\t(recipient != address(0), \"End...\n      CALLER \t\t\tr] -= amou\n      PUSH 0\t\t\t[msg.sender] -= amoun\n      DUP2 \t\t\t[msg.sender] -= amoun\n      DUP2 \t\t\t[msg.sender] -= amoun\n      MSTORE \t\t\t[msg.sender] -= amoun\n      PUSH 4\t\t\t[msg.send\n      PUSH 20\t\t\t[msg.sender] -= amoun\n      SWAP1 \t\t\t[msg.sender] -= amoun\n      DUP2 \t\t\t[msg.sender] -= amoun\n      MSTORE \t\t\t[msg.sender] -= amoun\n      PUSH 40\t\t\t[msg.sender] -= amoun\n      DUP1 \t\t\t[msg.sender] -= amoun\n      DUP4 \t\t\t[msg.sender] -= amoun\n      KECCAK256 \t\t\t[msg.sender] -= amoun\n      DUP1 \t\t\t[msg.sender] -= amount;\\n     ...\n      SLOAD \t\t\t[msg.sender] -= amount;\\n     ...\n      DUP8 \t\t\t[msg.sender] -= amount;\\n     ...\n      SWAP1 \t\t\t[msg.sender] -= amount;\\n     ...\n      SUB \t\t\t[msg.sender] -= amount;\\n     ...\n      SWAP1 \t\t\t[msg.sender] -= amount;\\n     ...\n      SSTORE \t\t\t[msg.sender] -= amount;\\n     ...\n      PUSH 1\t\t\t\n      PUSH 1\t\t\t\n      PUSH A0\t\t\t\n      SHL \t\t\t\n      SUB \t\t\t\n      DUP8 \t\t\t[recipient] += amoun\n      AND \t\t\t[recipient] += amoun\n      DUP1 \t\t\t[recipient] += amoun\n      DUP5 \t\t\t[recipient] += amoun\n      MSTORE \t\t\t[recipient] += amoun\n      SWAP3 \t\t\t[recipient] += amoun\n      DUP2 \t\t\t[recipient] += amoun\n      SWAP1 \t\t\t[recipient] += amoun\n      KECCAK256 \t\t\t[recipient] += amoun\n      DUP1 \t\t\t[recipient] += amount;\\n      ...\n      SLOAD \t\t\t[recipient] += amount;\\n      ...\n      DUP8 \t\t\t[recipient] += amount;\\n      ...\n      ADD \t\t\t[recipient] += amount;\\n      ...\n      SWAP1 \t\t\t[recipient] += amount;\\n      ...\n      SSTORE \t\t\t[recipient] += amount;\\n      ...\n      DUP1 \t\t\tmsg.sender, recipient, amount)...\n      MLOAD \t\t\tmsg.sender, recipient, amount)...\n      DUP7 \t\t\tmsg.sender, recipient, amount)...\n      DUP2 \t\t\tmsg.sender, recipient, amount)...\n      MSTORE \t\t\tmsg.sender, recipient, amount)...\n      SWAP1 \t\t\tmsg.sender, recipient, amount)...\n      MLOAD \t\t\tmsg.sender, recipient, amount)...\n      SWAP3 \t\t\t[recipient] += amoun\n      SWAP4 \t\t\t[recipient] += amoun\n      SWAP3 \t\t\tr] -= amou\n      PUSH DDF252AD1BE2C89B69C2B068FC378DAA952BA7F163C4A11628F55A4DF523B3EF\t\t\tmsg.sender, recipient, amount)...\n      SWAP3 \t\t\tmsg.sender, recipient, amount)...\n      SWAP2 \t\t\tmsg.sender, recipient, amount)...\n      DUP2 \t\t\tmsg.sender, recipient, amount)...\n      SWAP1 \t\t\tmsg.sender, recipient, amount)...\n      SUB \t\t\tmsg.sender, recipient, amount)...\n      SWAP1 \t\t\tmsg.sender, recipient, amount)...\n      SWAP2 \t\t\tmsg.sender, recipient, amount)...\n      ADD \t\t\tmsg.sender, recipient, amount)...\n      SWAP1 \t\t\tmsg.sender, recipient, amount)...\n      LOG3 \t\t\tmsg.sender, recipient, amount)...\n      POP \t\t\t\n      PUSH 1\t\t\t }\\n\\n\n      SWAP3 \t\t\tn transfer(address recipient, ...\n      SWAP2 \t\t\tn transfer(address recipient, ...\n      POP \t\t\tn transfer(address recipient, ...\n      POP \t\t\tn transfer(address recipient, ...\n      JUMP [out]\t\t\tn transfer(address recipient, ...\n    tag 62\t\t\tpply() public view returns (ui...\n      JUMPDEST \t\t\tpply() public view returns (ui...\n      PUSH 3\t\t\t}\\n\n      SLOAD \t\t\t}\\n\n      SWAP1 \t\t\tpply() public view returns (ui...\n      JUMP [out]\t\t\tpply() public view returns (ui...\n    tag 65\t\t\tapping(address => mapping(addr...\n      JUMPDEST \t\t\tapping(address => mapping(addr...\n      PUSH 5\t\t\tapping(address => mapping(addr...\n      PUSH 20\t\t\tapping(address => mapping(addr...\n      SWAP1 \t\t\tapping(address => mapping(addr...\n      DUP2 \t\t\tapping(address => mapping(addr...\n      MSTORE \t\t\tapping(address => mapping(addr...\n      PUSH 0\t\t\tapping(address => mapping(addr...\n      SWAP3 \t\t\tapping(address => mapping(addr...\n      DUP4 \t\t\tapping(address => mapping(addr...\n      MSTORE \t\t\tapping(address => mapping(addr...\n      PUSH 40\t\t\tapping(address => mapping(addr...\n      DUP1 \t\t\tapping(address => mapping(addr...\n      DUP5 \t\t\tapping(address => mapping(addr...\n      KECCAK256 \t\t\tapping(address => mapping(addr...\n      SWAP1 \t\t\tapping(address => mapping(addr...\n      SWAP2 \t\t\tapping(address => mapping(addr...\n      MSTORE \t\t\tapping(address => mapping(addr...\n      SWAP1 \t\t\tapping(address => mapping(addr...\n      DUP3 \t\t\tapping(address => mapping(addr...\n      MSTORE \t\t\tapping(address => mapping(addr...\n      SWAP1 \t\t\tapping(address => mapping(addr...\n      KECCAK256 \t\t\tapping(address => mapping(addr...\n      SLOAD \t\t\tapping(address => mapping(addr...\n      DUP2 \t\t\tapping(address => mapping(addr...\n      JUMP [out]\t\t\tapping(address => mapping(addr...\n    .data\n"
}